{
  "contractName": "IDOFactory",
  "abi": [
    {
      "inputs": [
        {
          "internalType": "contract ERC20Burnable",
          "name": "_feeToken",
          "type": "address"
        },
        {
          "internalType": "uint256",
          "name": "_feeAmount",
          "type": "uint256"
        },
        {
          "internalType": "uint256",
          "name": "_burnPercent",
          "type": "uint256"
        }
      ],
      "stateMutability": "nonpayable",
      "type": "constructor"
    },
    {
      "anonymous": false,
      "inputs": [
        {
          "indexed": false,
          "internalType": "uint256",
          "name": "newBurnPercent",
          "type": "uint256"
        },
        {
          "indexed": false,
          "internalType": "uint256",
          "name": "divider",
          "type": "uint256"
        }
      ],
      "name": "BurnPercentUpdated",
      "type": "event"
    },
    {
      "anonymous": false,
      "inputs": [
        {
          "indexed": false,
          "internalType": "uint256",
          "name": "newFeeAmount",
          "type": "uint256"
        }
      ],
      "name": "FeeAmountUpdated",
      "type": "event"
    },
    {
      "anonymous": false,
      "inputs": [
        {
          "indexed": false,
          "internalType": "address",
          "name": "newFeeWallet",
          "type": "address"
        }
      ],
      "name": "FeeWalletUpdated",
      "type": "event"
    },
    {
      "anonymous": false,
      "inputs": [
        {
          "indexed": true,
          "internalType": "address",
          "name": "owner",
          "type": "address"
        },
        {
          "indexed": false,
          "internalType": "address",
          "name": "idoPool",
          "type": "address"
        },
        {
          "indexed": true,
          "internalType": "address",
          "name": "rewardToken",
          "type": "address"
        },
        {
          "indexed": false,
          "internalType": "string",
          "name": "tokenURI",
          "type": "string"
        }
      ],
      "name": "IDOCreated",
      "type": "event"
    },
    {
      "anonymous": false,
      "inputs": [
        {
          "indexed": true,
          "internalType": "address",
          "name": "previousOwner",
          "type": "address"
        },
        {
          "indexed": true,
          "internalType": "address",
          "name": "newOwner",
          "type": "address"
        }
      ],
      "name": "OwnershipTransferred",
      "type": "event"
    },
    {
      "anonymous": false,
      "inputs": [
        {
          "indexed": false,
          "internalType": "address",
          "name": "newFeeToken",
          "type": "address"
        }
      ],
      "name": "TokenFeeUpdated",
      "type": "event"
    },
    {
      "inputs": [],
      "name": "burnPercent",
      "outputs": [
        {
          "internalType": "uint256",
          "name": "",
          "type": "uint256"
        }
      ],
      "stateMutability": "view",
      "type": "function",
      "constant": true
    },
    {
      "inputs": [],
      "name": "divider",
      "outputs": [
        {
          "internalType": "uint256",
          "name": "",
          "type": "uint256"
        }
      ],
      "stateMutability": "view",
      "type": "function",
      "constant": true
    },
    {
      "inputs": [],
      "name": "feeAmount",
      "outputs": [
        {
          "internalType": "uint256",
          "name": "",
          "type": "uint256"
        }
      ],
      "stateMutability": "view",
      "type": "function",
      "constant": true
    },
    {
      "inputs": [],
      "name": "feeToken",
      "outputs": [
        {
          "internalType": "contract ERC20Burnable",
          "name": "",
          "type": "address"
        }
      ],
      "stateMutability": "view",
      "type": "function",
      "constant": true
    },
    {
      "inputs": [],
      "name": "feeWallet",
      "outputs": [
        {
          "internalType": "address",
          "name": "",
          "type": "address"
        }
      ],
      "stateMutability": "view",
      "type": "function",
      "constant": true
    },
    {
      "inputs": [],
      "name": "owner",
      "outputs": [
        {
          "internalType": "address",
          "name": "",
          "type": "address"
        }
      ],
      "stateMutability": "view",
      "type": "function",
      "constant": true
    },
    {
      "inputs": [],
      "name": "renounceOwnership",
      "outputs": [],
      "stateMutability": "nonpayable",
      "type": "function"
    },
    {
      "inputs": [],
      "name": "transferAmount",
      "outputs": [
        {
          "internalType": "uint256",
          "name": "",
          "type": "uint256"
        }
      ],
      "stateMutability": "view",
      "type": "function",
      "constant": true
    },
    {
      "inputs": [
        {
          "internalType": "address",
          "name": "newOwner",
          "type": "address"
        }
      ],
      "name": "transferOwnership",
      "outputs": [],
      "stateMutability": "nonpayable",
      "type": "function"
    },
    {
      "inputs": [],
      "name": "withdrawfeePercentage4",
      "outputs": [
        {
          "internalType": "uint256",
          "name": "",
          "type": "uint256"
        }
      ],
      "stateMutability": "view",
      "type": "function",
      "constant": true
    },
    {
      "inputs": [
        {
          "internalType": "uint256",
          "name": "_fee4",
          "type": "uint256"
        }
      ],
      "name": "setWithdrawFee",
      "outputs": [],
      "stateMutability": "nonpayable",
      "type": "function"
    },
    {
      "inputs": [
        {
          "internalType": "address",
          "name": "_newFeeToken",
          "type": "address"
        }
      ],
      "name": "setFeeToken",
      "outputs": [],
      "stateMutability": "nonpayable",
      "type": "function"
    },
    {
      "inputs": [
        {
          "internalType": "uint256",
          "name": "_newFeeAmount",
          "type": "uint256"
        }
      ],
      "name": "setFeeAmount",
      "outputs": [],
      "stateMutability": "nonpayable",
      "type": "function"
    },
    {
      "inputs": [
        {
          "internalType": "address",
          "name": "_newFeeWallet",
          "type": "address"
        }
      ],
      "name": "setFeeWallet",
      "outputs": [],
      "stateMutability": "nonpayable",
      "type": "function"
    },
    {
      "inputs": [
        {
          "internalType": "uint256",
          "name": "_newBurnPercent",
          "type": "uint256"
        },
        {
          "internalType": "uint256",
          "name": "_newDivider",
          "type": "uint256"
        }
      ],
      "name": "setBurnPercent",
      "outputs": [],
      "stateMutability": "nonpayable",
      "type": "function"
    },
    {
      "inputs": [
        {
          "internalType": "contract ERC20",
          "name": "_rewardToken",
          "type": "address"
        },
        {
          "internalType": "uint256",
          "name": "_tokenRate",
          "type": "uint256"
        },
        {
          "internalType": "uint256",
          "name": "_listingRate",
          "type": "uint256"
        },
        {
          "components": [
            {
              "internalType": "uint256",
              "name": "softCap",
              "type": "uint256"
            },
            {
              "internalType": "uint256",
              "name": "hardCap",
              "type": "uint256"
            },
            {
              "internalType": "uint256",
              "name": "minEthPayment",
              "type": "uint256"
            },
            {
              "internalType": "uint256",
              "name": "maxEthPayment",
              "type": "uint256"
            }
          ],
          "internalType": "struct IDOPool.Capacity",
          "name": "_capacity",
          "type": "tuple"
        },
        {
          "components": [
            {
              "internalType": "uint256",
              "name": "startTimestamp",
              "type": "uint256"
            },
            {
              "internalType": "uint256",
              "name": "finishTimestamp",
              "type": "uint256"
            },
            {
              "internalType": "uint256",
              "name": "unlockTimestamp",
              "type": "uint256"
            }
          ],
          "internalType": "struct IDOPool.Time",
          "name": "_time",
          "type": "tuple"
        },
        {
          "components": [
            {
              "internalType": "address",
              "name": "router",
              "type": "address"
            },
            {
              "internalType": "address",
              "name": "factory",
              "type": "address"
            },
            {
              "internalType": "address",
              "name": "weth",
              "type": "address"
            }
          ],
          "internalType": "struct IDOPool.Uniswap",
          "name": "_uniswap",
          "type": "tuple"
        },
        {
          "components": [
            {
              "internalType": "uint256",
              "name": "lpPercentage",
              "type": "uint256"
            },
            {
              "internalType": "address",
              "name": "lockerFactoryAddress",
              "type": "address"
            }
          ],
          "internalType": "struct IDOPool.LockInfo",
          "name": "_lockInfo",
          "type": "tuple"
        },
        {
          "internalType": "string",
          "name": "_tokenURI",
          "type": "string"
        }
      ],
      "name": "createIDO",
      "outputs": [
        {
          "internalType": "address",
          "name": "",
          "type": "address"
        }
      ],
      "stateMutability": "payable",
      "type": "function",
      "payable": true
    }
  ],
  "bytecode": "0x608060405260326006553480156200001657600080fd5b50604051620060483803806200604883398181016040528101906200003c9190620001b6565b6200005c62000050620000bc60201b60201c565b620000c460201b60201c565b82600160006101000a81548173ffffffffffffffffffffffffffffffffffffffff021916908373ffffffffffffffffffffffffffffffffffffffff160217905550816003819055508060048190555060646005819055505050506200029d565b600033905090565b60008060009054906101000a900473ffffffffffffffffffffffffffffffffffffffff169050816000806101000a81548173ffffffffffffffffffffffffffffffffffffffff021916908373ffffffffffffffffffffffffffffffffffffffff1602179055508173ffffffffffffffffffffffffffffffffffffffff168173ffffffffffffffffffffffffffffffffffffffff167f8be0079c531659141344cd1fd0a4f28419497f9722a3daafe3b4186f6b6457e060405160405180910390a35050565b600081519050620001998162000269565b92915050565b600081519050620001b08162000283565b92915050565b600080600060608486031215620001d257620001d162000264565b5b6000620001e28682870162000188565b9350506020620001f5868287016200019f565b925050604062000208868287016200019f565b9150509250925092565b60006200021f826200023a565b9050919050565b6000620002338262000212565b9050919050565b600073ffffffffffffffffffffffffffffffffffffffff82169050919050565b6000819050919050565b600080fd5b620002748162000226565b81146200028057600080fd5b50565b6200028e816200025a565b81146200029a57600080fd5b50565b615d9b80620002ad6000396000f3fe6080604052600436106200010a5760003560e01c80636b392680116200009757806390d49b9d116200006157806390d49b9d1462000339578063b6ac642a1462000367578063f25f4b561462000395578063f2fde38b14620003c5576200010a565b80636b3926801462000293578063715018a614620002c15780638da5cb5b14620002db5780638dc12991146200030b576200010a565b8063378efa3711620000d9578063378efa3714620001d3578063504d27fd1462000203578063647846a5146200023357806369e154041462000263576200010a565b806303807ee5146200010f57806312d35967146200013f5780631482c7b7146200017557806315cce22414620001a5575b600080fd5b3480156200011c57600080fd5b5062000127620003f3565b604051620001369190620019e1565b60405180910390f35b6200015d600480360381019062000157919062001300565b620003f9565b6040516200016c91906200178c565b60405180910390f35b3480156200018257600080fd5b506200018d6200075b565b6040516200019c9190620019e1565b60405180910390f35b348015620001b257600080fd5b50620001d16004803603810190620001cb91906200129c565b62000761565b005b348015620001e057600080fd5b50620001eb62000835565b604051620001fa9190620019e1565b60405180910390f35b3480156200021057600080fd5b506200021b6200083b565b6040516200022a9190620019e1565b60405180910390f35b3480156200024057600080fd5b506200024b62000841565b6040516200025a91906200181a565b60405180910390f35b3480156200027057600080fd5b506200027b62000867565b6040516200028a9190620019e1565b60405180910390f35b348015620002a057600080fd5b50620002bf6004803603810190620002b99190620013eb565b6200086d565b005b348015620002ce57600080fd5b50620002d9620008ba565b005b348015620002e857600080fd5b50620002f3620008d2565b6040516200030291906200178c565b60405180910390f35b3480156200031857600080fd5b506200033760048036038101906200033191906200141d565b620008fb565b005b3480156200034657600080fd5b506200036560048036038101906200035f91906200129c565b62000998565b005b3480156200037457600080fd5b506200039360048036038101906200038d9190620013eb565b62000a1f565b005b348015620003a257600080fd5b50620003ad62000a33565b604051620003bc91906200178c565b60405180910390f35b348015620003d257600080fd5b50620003f16004803603810190620003eb91906200129c565b62000a59565b005b60045481565b6000806003541115620005a6576000620004376005546200042860045460035462000ae490919063ffffffff16565b62000afc90919063ffffffff16565b9050620004c233600260009054906101000a900473ffffffffffffffffffffffffffffffffffffffff16620004788460035462000b1490919063ffffffff16565b600160009054906101000a900473ffffffffffffffffffffffffffffffffffffffff1673ffffffffffffffffffffffffffffffffffffffff1662000b2c909392919063ffffffff16565b62000513333083600160009054906101000a900473ffffffffffffffffffffffffffffffffffffffff1673ffffffffffffffffffffffffffffffffffffffff1662000b2c909392919063ffffffff16565b600160009054906101000a900473ffffffffffffffffffffffffffffffffffffffff1673ffffffffffffffffffffffffffffffffffffffff166342966c68826040518263ffffffff1660e01b8152600401620005709190620019e1565b600060405180830381600087803b1580156200058b57600080fd5b505af1158015620005a0573d6000803e3d6000fd5b50505050505b60008989898989898989604051620005be9062000ff8565b620005d198979695949392919062001837565b604051809103906000f080158015620005ee573d6000803e3d6000fd5b509050620006206064856000015189602001516200060d919062001b51565b62000619919062001b19565b8962000bb9565b6200063088602001518b62000bb9565b6200063c919062001abc565b6007819055508073ffffffffffffffffffffffffffffffffffffffff1663f2fde38b336040518263ffffffff1660e01b81526004016200067d91906200178c565b600060405180830381600087803b1580156200069857600080fd5b505af1158015620006ad573d6000803e3d6000fd5b50505050620006e233826007548d73ffffffffffffffffffffffffffffffffffffffff1662000b2c909392919063ffffffff16565b8973ffffffffffffffffffffffffffffffffffffffff163373ffffffffffffffffffffffffffffffffffffffff167ff71c11ab5bd622b01d634c5c9e59846d77ee252871f11645b7b8376ddd4dd3e2838660405162000743929190620017e6565b60405180910390a38091505098975050505050505050565b60065481565b6200076b62000bf4565b620007768162000c79565b620007b8576040517f08c379a0000000000000000000000000000000000000000000000000000000008152600401620007af9062001937565b60405180910390fd5b80600160006101000a81548173ffffffffffffffffffffffffffffffffffffffff021916908373ffffffffffffffffffffffffffffffffffffffff1602179055507f9e892f555b0a5cac6c8cc33c82ebb9308207bd16dfdca9d0289b96d7e4186c8a816040516200082a91906200178c565b60405180910390a150565b60055481565b60075481565b600160009054906101000a900473ffffffffffffffffffffffffffffffffffffffff1681565b60035481565b6200087762000bf4565b806003819055507fbb128cd9921d003aff00ed910fe24b1655b2bf1f4a2090cc3523f61bdc17231681604051620008af9190620019e1565b60405180910390a150565b620008c462000bf4565b620008d0600062000c92565b565b60008060009054906101000a900473ffffffffffffffffffffffffffffffffffffffff16905090565b6200090562000bf4565b808211156200094b576040517f08c379a000000000000000000000000000000000000000000000000000000000815260040162000942906200197b565b60405180910390fd5b81600481905550806005819055507fb62d69c6ddf4f4bd443dca17ea7405d8018efb872e82e77bb8ef13b5be2f2e9c82826040516200098c929190620019fe565b60405180910390a15050565b620009a262000bf4565b80600260006101000a81548173ffffffffffffffffffffffffffffffffffffffff021916908373ffffffffffffffffffffffffffffffffffffffff1602179055507f29acee77dafcfa0143d74a7ea236018f3a6e1fa71e27fc59bbfbc6b8ca8edccd8160405162000a1491906200178c565b60405180910390a150565b62000a2962000bf4565b8060068190555050565b600260009054906101000a900473ffffffffffffffffffffffffffffffffffffffff1681565b62000a6362000bf4565b600073ffffffffffffffffffffffffffffffffffffffff168173ffffffffffffffffffffffffffffffffffffffff16141562000ad6576040517f08c379a000000000000000000000000000000000000000000000000000000000815260040162000acd90620018f3565b60405180910390fd5b62000ae18162000c92565b50565b6000818362000af4919062001b51565b905092915050565b6000818362000b0c919062001b19565b905092915050565b6000818362000b24919062001bb2565b905092915050565b62000bb3846323b872dd60e01b85858560405160240162000b5093929190620017a9565b604051602081830303815290604052907bffffffffffffffffffffffffffffffffffffffffffffffffffffffff19166020820180517bffffffffffffffffffffffffffffffffffffffffffffffffffffffff838183161783525050505062000d56565b50505050565b600062000bec670de0b6b3a764000062000bdd848662000ae490919063ffffffff16565b62000afc90919063ffffffff16565b905092915050565b62000bfe62000e25565b73ffffffffffffffffffffffffffffffffffffffff1662000c1e620008d2565b73ffffffffffffffffffffffffffffffffffffffff161462000c77576040517f08c379a000000000000000000000000000000000000000000000000000000000815260040162000c6e9062001959565b60405180910390fd5b565b600080823b905060008163ffffffff1611915050919050565b60008060009054906101000a900473ffffffffffffffffffffffffffffffffffffffff169050816000806101000a81548173ffffffffffffffffffffffffffffffffffffffff021916908373ffffffffffffffffffffffffffffffffffffffff1602179055508173ffffffffffffffffffffffffffffffffffffffff168173ffffffffffffffffffffffffffffffffffffffff167f8be0079c531659141344cd1fd0a4f28419497f9722a3daafe3b4186f6b6457e060405160405180910390a35050565b600062000dba826040518060400160405280602081526020017f5361666545524332303a206c6f772d6c6576656c2063616c6c206661696c65648152508573ffffffffffffffffffffffffffffffffffffffff1662000e2d9092919063ffffffff16565b905060008151111562000e20578080602001905181019062000ddd9190620012ce565b62000e1f576040517f08c379a000000000000000000000000000000000000000000000000000000000815260040162000e1690620019bf565b60405180910390fd5b5b505050565b600033905090565b606062000e3e848460008562000e47565b90509392505050565b60608247101562000e8f576040517f08c379a000000000000000000000000000000000000000000000000000000000815260040162000e869062001915565b60405180910390fd5b62000e9a8562000f69565b62000edc576040517f08c379a000000000000000000000000000000000000000000000000000000000815260040162000ed3906200199d565b60405180910390fd5b6000808673ffffffffffffffffffffffffffffffffffffffff16858760405162000f07919062001773565b60006040518083038185875af1925050503d806000811462000f46576040519150601f19603f3d011682016040523d82523d6000602084013e62000f4b565b606091505b509150915062000f5d82828662000f8c565b92505050949350505050565b6000808273ffffffffffffffffffffffffffffffffffffffff163b119050919050565b6060831562000f9e5782905062000ff1565b60008351111562000fb25782518084602001fd5b816040517f08c379a000000000000000000000000000000000000000000000000000000000815260040162000fe89190620018cf565b60405180910390fd5b9392505050565b613d798062001fed83390190565b60006200101d620010178462001a54565b62001a2b565b9050828152602081018484840111156200103c576200103b62001dad565b5b6200104984828562001c9b565b509392505050565b600081359050620010628162001f84565b92915050565b600081519050620010798162001f9e565b92915050565b600081359050620010908162001fb8565b92915050565b600082601f830112620010ae57620010ad62001da3565b5b8135620010c084826020860162001006565b91505092915050565b600060808284031215620010e257620010e162001da8565b5b620010ee608062001a2b565b90506000620011008482850162001285565b6000830152506020620011168482850162001285565b60208301525060406200112c8482850162001285565b6040830152506060620011428482850162001285565b60608301525092915050565b60006040828403121562001167576200116662001da8565b5b62001173604062001a2b565b90506000620011858482850162001285565b60008301525060206200119b8482850162001051565b60208301525092915050565b600060608284031215620011c057620011bf62001da8565b5b620011cc606062001a2b565b90506000620011de8482850162001285565b6000830152506020620011f48482850162001285565b60208301525060406200120a8482850162001285565b60408301525092915050565b6000606082840312156200122f576200122e62001da8565b5b6200123b606062001a2b565b905060006200124d8482850162001051565b6000830152506020620012638482850162001051565b6020830152506040620012798482850162001051565b60408301525092915050565b600081359050620012968162001fd2565b92915050565b600060208284031215620012b557620012b462001db7565b5b6000620012c58482850162001051565b91505092915050565b600060208284031215620012e757620012e662001db7565b5b6000620012f78482850162001068565b91505092915050565b600080600080600080600080610200898b03121562001324576200132362001db7565b5b6000620013348b828c016200107f565b9850506020620013478b828c0162001285565b97505060406200135a8b828c0162001285565b96505060606200136d8b828c01620010c9565b95505060e0620013808b828c01620011a7565b945050610140620013948b828c0162001216565b9350506101a0620013a88b828c016200114e565b9250506101e089013567ffffffffffffffff811115620013cd57620013cc62001db2565b5b620013db8b828c0162001096565b9150509295985092959890939650565b60006020828403121562001404576200140362001db7565b5b6000620014148482850162001285565b91505092915050565b6000806040838503121562001437576200143662001db7565b5b6000620014478582860162001285565b92505060206200145a8582860162001285565b9150509250929050565b6200146f8162001bed565b82525050565b620014808162001bed565b82525050565b6000620014938262001a8a565b6200149f818562001aa0565b9350620014b181856020860162001caa565b80840191505092915050565b620014c88162001c4b565b82525050565b620014d98162001c5f565b82525050565b6000620014ec8262001a95565b620014f8818562001aab565b93506200150a81856020860162001caa565b620015158162001dbc565b840191505092915050565b60006200152f60268362001aab565b91506200153c8262001dcd565b604082019050919050565b60006200155660268362001aab565b9150620015638262001e1c565b604082019050919050565b60006200157d601a8362001aab565b91506200158a8262001e6b565b602082019050919050565b6000620015a460208362001aab565b9150620015b18262001e94565b602082019050919050565b6000620015cb60268362001aab565b9150620015d88262001ebd565b604082019050919050565b6000620015f2601d8362001aab565b9150620015ff8262001f0c565b602082019050919050565b600062001619602a8362001aab565b9150620016268262001f35565b604082019050919050565b60808201600082015162001649600085018262001751565b5060208201516200165e602085018262001751565b50604082015162001673604085018262001751565b50606082015162001688606085018262001751565b50505050565b604082016000820151620016a6600085018262001751565b506020820151620016bb602085018262001464565b50505050565b606082016000820151620016d9600085018262001751565b506020820151620016ee602085018262001751565b50604082015162001703604085018262001751565b50505050565b60608201600082015162001721600085018262001464565b50602082015162001736602085018262001464565b5060408201516200174b604085018262001464565b50505050565b6200175c8162001c41565b82525050565b6200176d8162001c41565b82525050565b600062001781828462001486565b915081905092915050565b6000602082019050620017a3600083018462001475565b92915050565b6000606082019050620017c0600083018662001475565b620017cf602083018562001475565b620017de604083018462001762565b949350505050565b6000604082019050620017fd600083018562001475565b8181036020830152620018118184620014df565b90509392505050565b6000602082019050620018316000830184620014bd565b92915050565b6000610200820190506200184f600083018b620014ce565b6200185e602083018a62001762565b6200186d604083018962001762565b6200187c606083018862001631565b6200188b60e0830187620016c1565b6200189b61014083018662001709565b620018ab6101a08301856200168e565b8181036101e0830152620018c08184620014df565b90509998505050505050505050565b60006020820190508181036000830152620018eb8184620014df565b905092915050565b600060208201905081810360008301526200190e8162001520565b9050919050565b60006020820190508181036000830152620019308162001547565b9050919050565b6000602082019050818103600083015262001952816200156e565b9050919050565b60006020820190508181036000830152620019748162001595565b9050919050565b600060208201905081810360008301526200199681620015bc565b9050919050565b60006020820190508181036000830152620019b881620015e3565b9050919050565b60006020820190508181036000830152620019da816200160a565b9050919050565b6000602082019050620019f8600083018462001762565b92915050565b600060408201905062001a15600083018562001762565b62001a24602083018462001762565b9392505050565b600062001a3762001a4a565b905062001a45828262001ce0565b919050565b6000604051905090565b600067ffffffffffffffff82111562001a725762001a7162001d74565b5b62001a7d8262001dbc565b9050602081019050919050565b600081519050919050565b600081519050919050565b600081905092915050565b600082825260208201905092915050565b600062001ac98262001c41565b915062001ad68362001c41565b9250827fffffffffffffffffffffffffffffffffffffffffffffffffffffffffffffffff0382111562001b0e5762001b0d62001d16565b5b828201905092915050565b600062001b268262001c41565b915062001b338362001c41565b92508262001b465762001b4562001d45565b5b828204905092915050565b600062001b5e8262001c41565b915062001b6b8362001c41565b9250817fffffffffffffffffffffffffffffffffffffffffffffffffffffffffffffffff048311821515161562001ba75762001ba662001d16565b5b828202905092915050565b600062001bbf8262001c41565b915062001bcc8362001c41565b92508282101562001be25762001be162001d16565b5b828203905092915050565b600062001bfa8262001c21565b9050919050565b60008115159050919050565b600062001c1a8262001bed565b9050919050565b600073ffffffffffffffffffffffffffffffffffffffff82169050919050565b6000819050919050565b600062001c588262001c73565b9050919050565b600062001c6c8262001c73565b9050919050565b600062001c808262001c87565b9050919050565b600062001c948262001c21565b9050919050565b82818337600083830152505050565b60005b8381101562001cca57808201518184015260208101905062001cad565b8381111562001cda576000848401525b50505050565b62001ceb8262001dbc565b810181811067ffffffffffffffff8211171562001d0d5762001d0c62001d74565b5b80604052505050565b7f4e487b7100000000000000000000000000000000000000000000000000000000600052601160045260246000fd5b7f4e487b7100000000000000000000000000000000000000000000000000000000600052601260045260246000fd5b7f4e487b7100000000000000000000000000000000000000000000000000000000600052604160045260246000fd5b600080fd5b600080fd5b600080fd5b600080fd5b600080fd5b6000601f19601f8301169050919050565b7f4f776e61626c653a206e6577206f776e657220697320746865207a65726f206160008201527f6464726573730000000000000000000000000000000000000000000000000000602082015250565b7f416464726573733a20696e73756666696369656e742062616c616e636520666f60008201527f722063616c6c0000000000000000000000000000000000000000000000000000602082015250565b7f4e65772061646472657373206973206e6f74206120746f6b656e000000000000600082015250565b7f4f776e61626c653a2063616c6c6572206973206e6f7420746865206f776e6572600082015250565b7f4275726e2070657263656e74206d757374206265206c657373207468616e206460008201527f6976696465720000000000000000000000000000000000000000000000000000602082015250565b7f416464726573733a2063616c6c20746f206e6f6e2d636f6e7472616374000000600082015250565b7f5361666545524332303a204552433230206f7065726174696f6e20646964206e60008201527f6f74207375636365656400000000000000000000000000000000000000000000602082015250565b62001f8f8162001bed565b811462001f9b57600080fd5b50565b62001fa98162001c01565b811462001fb557600080fd5b50565b62001fc38162001c0d565b811462001fcf57600080fd5b50565b62001fdd8162001c41565b811462001fe957600080fd5b5056fe60806040526000601860006101000a81548160ff0219169083151502179055506000601860016101000a81548160ff0219169083151502179055507354ea3b472844eb0c4f644a5231ef6bdaf3d44799601860026101000a81548173ffffffffffffffffffffffffffffffffffffffff021916908373ffffffffffffffffffffffffffffffffffffffff1602179055503480156200009c57600080fd5b5060405162003d7938038062003d798339818101604052810190620000c291906200086a565b620000e2620000d6620002d660201b60201c565b620002de60201b60201c565b600180819055506200010f87878760000151886020015189604001518a60600151620003a260201b60201c565b620001a6888973ffffffffffffffffffffffffffffffffffffffff1663313ce5676040518163ffffffff1660e01b815260040160206040518083038186803b1580156200015b57600080fd5b505afa15801562000170573d6000803e3d6000fd5b505050506040513d601f19601f8201168201806040525081019062000196919062000955565b60ff1685620003e060201b60201c565b81600e6000820151816000015560208201518160010160006101000a81548173ffffffffffffffffffffffffffffffffffffffff021916908373ffffffffffffffffffffffffffffffffffffffff16021790555090505083602001518460000151106200024a576040517f08c379a00000000000000000000000000000000000000000000000000000000081526004016200024190620009d5565b60405180910390fd5b4284602001511162000293576040517f08c379a00000000000000000000000000000000000000000000000000000000081526004016200028a90620009f7565b60405180910390fd5b836007600082015181600001556020820151816001015560408201518160020155905050620002c8816200050860201b60201c565b505050505050505062000d18565b600033905090565b60008060009054906101000a900473ffffffffffffffffffffffffffffffffffffffff169050816000806101000a81548173ffffffffffffffffffffffffffffffffffffffff021916908373ffffffffffffffffffffffffffffffffffffffff1602179055508173ffffffffffffffffffffffffffffffffffffffff168173ffffffffffffffffffffffffffffffffffffffff167f8be0079c531659141344cd1fd0a4f28419497f9722a3daafe3b4186f6b6457e060405160405180910390a35050565b856010819055508460118190555083600a6000018190555082600a6001018190555081600a6002018190555080600a60030181905550505050505050565b82600260006101000a81548173ffffffffffffffffffffffffffffffffffffffff021916908373ffffffffffffffffffffffffffffffffffffffff1602179055508160038190555080600460008201518160000160006101000a81548173ffffffffffffffffffffffffffffffffffffffff021916908373ffffffffffffffffffffffffffffffffffffffff16021790555060208201518160010160006101000a81548173ffffffffffffffffffffffffffffffffffffffff021916908373ffffffffffffffffffffffffffffffffffffffff16021790555060408201518160020160006101000a81548173ffffffffffffffffffffffffffffffffffffffff021916908373ffffffffffffffffffffffffffffffffffffffff160217905550905050505050565b80601790805190602001906200052092919062000524565b5050565b828054620005329062000b1e565b90600052602060002090601f016020900481019282620005565760008555620005a2565b82601f106200057157805160ff1916838001178555620005a2565b82800160010185558215620005a2579182015b82811115620005a157825182559160200191906001019062000584565b5b509050620005b19190620005b5565b5090565b5b80821115620005d0576000816000905550600101620005b6565b5090565b6000620005eb620005e58462000a42565b62000a19565b9050828152602081018484840111156200060a576200060962000bf2565b5b6200061784828562000ae8565b509392505050565b600081519050620006308162000cb0565b92915050565b600081519050620006478162000cca565b92915050565b600082601f83011262000665576200066462000be8565b5b815162000677848260208601620005d4565b91505092915050565b60006080828403121562000699576200069862000bed565b5b620006a5608062000a19565b90506000620006b7848285016200083c565b6000830152506020620006cd848285016200083c565b6020830152506040620006e3848285016200083c565b6040830152506060620006f9848285016200083c565b60608301525092915050565b6000604082840312156200071e576200071d62000bed565b5b6200072a604062000a19565b905060006200073c848285016200083c565b600083015250602062000752848285016200061f565b60208301525092915050565b60006060828403121562000777576200077662000bed565b5b62000783606062000a19565b9050600062000795848285016200083c565b6000830152506020620007ab848285016200083c565b6020830152506040620007c1848285016200083c565b60408301525092915050565b600060608284031215620007e657620007e562000bed565b5b620007f2606062000a19565b9050600062000804848285016200061f565b60008301525060206200081a848285016200061f565b602083015250604062000830848285016200061f565b60408301525092915050565b6000815190506200084d8162000ce4565b92915050565b600081519050620008648162000cfe565b92915050565b600080600080600080600080610200898b0312156200088e576200088d62000bfc565b5b60006200089e8b828c0162000636565b9850506020620008b18b828c016200083c565b9750506040620008c48b828c016200083c565b9650506060620008d78b828c0162000680565b95505060e0620008ea8b828c016200075e565b945050610140620008fe8b828c01620007cd565b9350506101a0620009128b828c0162000705565b9250506101e089015167ffffffffffffffff81111562000937576200093662000bf7565b5b620009458b828c016200064d565b9150509295985092959890939650565b6000602082840312156200096e576200096d62000bfc565b5b60006200097e8482850162000853565b91505092915050565b60006200099660328362000a78565b9150620009a38262000c12565b604082019050919050565b6000620009bd60308362000a78565b9150620009ca8262000c61565b604082019050919050565b60006020820190508181036000830152620009f08162000987565b9050919050565b6000602082019050818103600083015262000a1281620009ae565b9050919050565b600062000a2562000a38565b905062000a33828262000b54565b919050565b6000604051905090565b600067ffffffffffffffff82111562000a605762000a5f62000bb9565b5b62000a6b8262000c01565b9050602081019050919050565b600082825260208201905092915050565b600062000a968262000ab1565b9050919050565b600062000aaa8262000a89565b9050919050565b600073ffffffffffffffffffffffffffffffffffffffff82169050919050565b6000819050919050565b600060ff82169050919050565b60005b8381101562000b0857808201518184015260208101905062000aeb565b8381111562000b18576000848401525b50505050565b6000600282049050600182168062000b3757607f821691505b6020821081141562000b4e5762000b4d62000b8a565b5b50919050565b62000b5f8262000c01565b810181811067ffffffffffffffff8211171562000b815762000b8062000bb9565b5b80604052505050565b7f4e487b7100000000000000000000000000000000000000000000000000000000600052602260045260246000fd5b7f4e487b7100000000000000000000000000000000000000000000000000000000600052604160045260246000fd5b600080fd5b600080fd5b600080fd5b600080fd5b600080fd5b6000601f19601f8301169050919050565b7f53746172742074696d657374616d70206d757374206265206c6573732074686160008201527f6e2066696e6973682074696d657374616d700000000000000000000000000000602082015250565b7f46696e6973682074696d657374616d70206d757374206265206d6f726520746860008201527f616e2063757272656e7420626c6f636b00000000000000000000000000000000602082015250565b62000cbb8162000a89565b811462000cc757600080fd5b50565b62000cd58162000a9d565b811462000ce157600080fd5b50565b62000cef8162000ad1565b811462000cfb57600080fd5b50565b62000d098162000adb565b811462000d1557600080fd5b50565b6130518062000d286000396000f3fe6080604052600436106101f95760003560e01c8063715018a61161010d578063db762bc9116100a0578063f2fde38b1161006f578063f2fde38b1461063b578063f5ae497a14610664578063f7c618c11461068f578063f84b903e146106ba578063fd46a171146106e5576101f9565b8063db762bc9146105b3578063ddeae033146105df578063e086e5ec14610608578063e0df5b6f14610612576101f9565b8063a20ecbbb116100dc578063a20ecbbb1461052f578063c1f1b1b51461055a578063c6a0e27d14610585578063db2e21bc1461059c576101f9565b8063715018a61461049757806382b2e257146104ae5780638da5cb5b146104d957806391cca3db14610504576101f9565b806338df7677116101905780634e71d92d1161015f5780634e71d92d146103e5578063586360ce146103fc5780635cfc1a511461042757806362bea93f146104555780636727299914610480576101f9565b806338df76771461034d5780633c130d90146103785780633f94d908146103a35780634b1a4c0c146103ba576101f9565b80632681f7e4116101cc5780632681f7e41461029f578063313ce567146102cc57806331711884146102f75780633675f29b14610322576101f9565b806312065fe0146101fe57806316ada547146102295780631959a002146102565780631b9265b814610295575b600080fd5b34801561020a57600080fd5b50610213610710565b60405161022091906127cc565b60405180910390f35b34801561023557600080fd5b5061023e610718565b60405161024d93929190612839565b60405180910390f35b34801561026257600080fd5b5061027d60048036038101906102789190611fe5565b610730565b60405161028c93929190612839565b60405180910390f35b61029d61075a565b005b3480156102ab57600080fd5b506102b4610a6a565b6040516102c3939291906124b4565b60405180910390f35b3480156102d857600080fd5b506102e1610ae2565b6040516102ee91906127cc565b60405180910390f35b34801561030357600080fd5b5061030c610ae8565b60405161031991906127cc565b60405180910390f35b34801561032e57600080fd5b50610337610aee565b6040516103449190612470565b60405180910390f35b34801561035957600080fd5b50610362610b14565b60405161036f9190612514565b60405180910390f35b34801561038457600080fd5b5061038d610b27565b60405161039a919061254a565b60405180910390f35b3480156103af57600080fd5b506103b8610bb5565b005b3480156103c657600080fd5b506103cf610cb3565b6040516103dc91906127cc565b60405180910390f35b3480156103f157600080fd5b506103fa610cb9565b005b34801561040857600080fd5b50610411610cc4565b60405161041e91906127cc565b60405180910390f35b34801561043357600080fd5b5061043c610cca565b60405161044c9493929190612870565b60405180910390f35b34801561046157600080fd5b5061046a610ce8565b60405161047791906127cc565b60405180910390f35b34801561048c57600080fd5b50610495610dc7565b005b3480156104a357600080fd5b506104ac610f7c565b005b3480156104ba57600080fd5b506104c3610f90565b6040516104d091906127cc565b60405180910390f35b3480156104e557600080fd5b506104ee611042565b6040516104fb9190612470565b60405180910390f35b34801561051057600080fd5b5061051961106b565b6040516105269190612470565b60405180910390f35b34801561053b57600080fd5b50610544611091565b60405161055191906127cc565b60405180910390f35b34801561056657600080fd5b5061056f611097565b60405161057c9190612470565b60405180910390f35b34801561059157600080fd5b5061059a611195565b005b3480156105a857600080fd5b506105b1611313565b005b3480156105bf57600080fd5b506105c86114a6565b6040516105d69291906127e7565b60405180910390f35b3480156105eb57600080fd5b5061060660048036038101906106019190611fe5565b6114d8565b005b6106106114e4565b005b34801561061e57600080fd5b506106396004803603810190610634919061206c565b61169d565b005b34801561064757600080fd5b50610662600480360381019061065d9190611fe5565b6116b7565b005b34801561067057600080fd5b5061067961173b565b6040516106869190612470565b60405180910390f35b34801561069b57600080fd5b506106a4611761565b6040516106b1919061252f565b60405180910390f35b3480156106c657600080fd5b506106cf611787565b6040516106dc9190612514565b60405180910390f35b3480156106f157600080fd5b506106fa61179a565b60405161070791906127cc565b60405180910390f35b600047905090565b60078060000154908060010154908060020154905083565b60196020528060005260406000206000915090508060000154908060010154908060020154905083565b600a600201543410156107a2576040517f08c379a00000000000000000000000000000000000000000000000000000000081526004016107999061264c565b60405180910390fd5b600a600301543411156107ea576040517f08c379a00000000000000000000000000000000000000000000000000000000081526004016107e19061262c565b60405180910390fd5b600760000154421015610832576040517f08c379a00000000000000000000000000000000000000000000000000000000081526004016108299061258c565b60405180910390fd5b6007600101544210610879576040517f08c379a00000000000000000000000000000000000000000000000000000000081526004016108709061260c565b60405180910390fd5b6000610884346117a0565b9050600a600101546108a1346016546117d890919063ffffffff16565b11156108e2576040517f08c379a00000000000000000000000000000000000000000000000000000000081526004016108d99061266c565b60405180910390fd5b6000601960003373ffffffffffffffffffffffffffffffffffffffff1673ffffffffffffffffffffffffffffffffffffffff1681526020019081526020016000209050600a600301546109423483600201546117d890919063ffffffff16565b1115610983576040517f08c379a000000000000000000000000000000000000000000000000000000000815260040161097a9061262c565b60405180910390fd5b610998346016546117d890919063ffffffff16565b6016819055506109b3826014546117d890919063ffffffff16565b6014819055506109d03482600201546117d890919063ffffffff16565b81600201819055506109ef8282600101546117d890919063ffffffff16565b8160010181905550610a0e8282600001546117d890919063ffffffff16565b81600001819055503373ffffffffffffffffffffffffffffffffffffffff167fb55d4ca2fc644ca3f8cdc9c907826e24acd68d2b2d4d73f48b8f2378dbaedf5d3484604051610a5e929190612810565b60405180910390a25050565b60048060000160009054906101000a900473ffffffffffffffffffffffffffffffffffffffff16908060010160009054906101000a900473ffffffffffffffffffffffffffffffffffffffff16908060020160009054906101000a900473ffffffffffffffffffffffffffffffffffffffff16905083565b60035481565b60105481565b601360009054906101000a900473ffffffffffffffffffffffffffffffffffffffff1681565b601860019054906101000a900460ff1681565b60178054610b3490612b12565b80601f0160208091040260200160405190810160405280929190818152602001828054610b6090612b12565b8015610bad5780601f10610b8257610100808354040283529160200191610bad565b820191906000526020600020905b815481529060010190602001808311610b9057829003601f168201915b505050505081565b6007600101544211610bfc576040517f08c379a0000000000000000000000000000000000000000000000000000000008152600401610bf39061268c565b60405180910390fd5b600a6000015460165410610c45576040517f08c379a0000000000000000000000000000000000000000000000000000000008152600401610c3c9061274c565b60405180910390fd5b610c4d6117ee565b6000610c57610f90565b90506000811115610cb057610caf3382600260009054906101000a900473ffffffffffffffffffffffffffffffffffffffff1673ffffffffffffffffffffffffffffffffffffffff1661186c9092919063ffffffff16565b5b50565b60145481565b610cc2336118f2565b565b60155481565b600a8060000154908060010154908060020154908060030154905084565b600080600260009054906101000a900473ffffffffffffffffffffffffffffffffffffffff1673ffffffffffffffffffffffffffffffffffffffff166370a08231306040518263ffffffff1660e01b8152600401610d469190612470565b60206040518083038186803b158015610d5e57600080fd5b505afa158015610d72573d6000803e3d6000fd5b505050506040513d601f19601f82011682018060405250810190610d9691906120b5565b9050610dc1601454610db3601554846117d890919063ffffffff16565b611af390919063ffffffff16565b91505090565b6007600101544211610e0e576040517f08c379a0000000000000000000000000000000000000000000000000000000008152600401610e059061268c565b60405180910390fd5b600a6000015460165410610e57576040517f08c379a0000000000000000000000000000000000000000000000000000000008152600401610e4e9061274c565b60405180910390fd5b6000601960003373ffffffffffffffffffffffffffffffffffffffff1673ffffffffffffffffffffffffffffffffffffffff16815260200190815260200160002090506000816002015490506000811115610f785760008260000181905550600082600201819055506000826001018190555060003373ffffffffffffffffffffffffffffffffffffffff1682604051610ef09061245b565b60006040518083038185875af1925050503d8060008114610f2d576040519150601f19603f3d011682016040523d82523d6000602084013e610f32565b606091505b5050905080610f76576040517f08c379a0000000000000000000000000000000000000000000000000000000008152600401610f6d9061270c565b60405180910390fd5b505b5050565b610f846117ee565b610f8e6000611b09565b565b6000600260009054906101000a900473ffffffffffffffffffffffffffffffffffffffff1673ffffffffffffffffffffffffffffffffffffffff166370a08231306040518263ffffffff1660e01b8152600401610fed9190612470565b60206040518083038186803b15801561100557600080fd5b505afa158015611019573d6000803e3d6000fd5b505050506040513d601f19601f8201168201806040525081019061103d91906120b5565b905090565b60008060009054906101000a900473ffffffffffffffffffffffffffffffffffffffff16905090565b601860029054906101000a900473ffffffffffffffffffffffffffffffffffffffff1681565b60115481565b6000600460010160009054906101000a900473ffffffffffffffffffffffffffffffffffffffff1673ffffffffffffffffffffffffffffffffffffffff1663e6a43905600260009054906101000a900473ffffffffffffffffffffffffffffffffffffffff16600460020160009054906101000a900473ffffffffffffffffffffffffffffffffffffffff166040518363ffffffff1660e01b815260040161114092919061248b565b60206040518083038186803b15801561115857600080fd5b505afa15801561116c573d6000803e3d6000fd5b505050506040513d601f19601f820116820180604052508101906111909190612012565b905090565b61119d6117ee565b601860009054906101000a900460ff166111ec576040517f08c379a00000000000000000000000000000000000000000000000000000000081526004016111e3906126cc565b60405180910390fd5b6000600260009054906101000a900473ffffffffffffffffffffffffffffffffffffffff1673ffffffffffffffffffffffffffffffffffffffff166370a08231306040518263ffffffff1660e01b81526004016112499190612470565b60206040518083038186803b15801561126157600080fd5b505afa158015611275573d6000803e3d6000fd5b505050506040513d601f19601f8201168201806040525081019061129991906120b5565b9050611310336112c86014546112ba601554866117d890919063ffffffff16565b611af390919063ffffffff16565b600260009054906101000a900473ffffffffffffffffffffffffffffffffffffffff1673ffffffffffffffffffffffffffffffffffffffff1661186c9092919063ffffffff16565b50565b601860029054906101000a900473ffffffffffffffffffffffffffffffffffffffff1673ffffffffffffffffffffffffffffffffffffffff163373ffffffffffffffffffffffffffffffffffffffff16146113a3576040517f08c379a000000000000000000000000000000000000000000000000000000000815260040161139a906125ec565b60405180910390fd5b60006007600101546113b5919061293d565b4210156113f7576040517f08c379a00000000000000000000000000000000000000000000000000000000081526004016113ee9061256c565b60405180910390fd5b60003373ffffffffffffffffffffffffffffffffffffffff164760405161141d9061245b565b60006040518083038185875af1925050503d806000811461145a576040519150601f19603f3d011682016040523d82523d6000602084013e61145f565b606091505b50509050806114a3576040517f08c379a000000000000000000000000000000000000000000000000000000000815260040161149a9061270c565b60405180910390fd5b50565b600e8060000154908060010160009054906101000a900473ffffffffffffffffffffffffffffffffffffffff16905082565b6114e1816118f2565b50565b6114ec6117ee565b600a600001546016541015611536576040517f08c379a000000000000000000000000000000000000000000000000000000000815260040161152d906126ec565b60405180910390fd5b600760010154421161157d576040517f08c379a00000000000000000000000000000000000000000000000000000000081526004016115749061268c565b60405180910390fd5b601860009054906101000a900460ff16156115cd576040517f08c379a00000000000000000000000000000000000000000000000000000000081526004016115c49061278c565b60405180910390fd5b600047905060003373ffffffffffffffffffffffffffffffffffffffff16826040516115f89061245b565b60006040518083038185875af1925050503d8060008114611635576040519150601f19603f3d011682016040523d82523d6000602084013e61163a565b606091505b505090508061167e576040517f08c379a00000000000000000000000000000000000000000000000000000000081526004016116759061270c565b60405180910390fd5b6001601860006101000a81548160ff0219169083151502179055505050565b80601790805190602001906116b3929190611e7e565b5050565b6116bf6117ee565b600073ffffffffffffffffffffffffffffffffffffffff168173ffffffffffffffffffffffffffffffffffffffff16141561172f576040517f08c379a0000000000000000000000000000000000000000000000000000000008152600401611726906125ac565b60405180910390fd5b61173881611b09565b50565b601260009054906101000a900473ffffffffffffffffffffffffffffffffffffffff1681565b600260009054906101000a900473ffffffffffffffffffffffffffffffffffffffff1681565b601860009054906101000a900460ff1681565b60165481565b60006117d1670de0b6b3a76400006117c360105485611bcd90919063ffffffff16565b611be390919063ffffffff16565b9050919050565b600081836117e6919061293d565b905092915050565b6117f6611bf9565b73ffffffffffffffffffffffffffffffffffffffff16611814611042565b73ffffffffffffffffffffffffffffffffffffffff161461186a576040517f08c379a0000000000000000000000000000000000000000000000000000000008152600401611861906126ac565b60405180910390fd5b565b6118ed8363a9059cbb60e01b848460405160240161188b9291906124eb565b604051602081830303815290604052907bffffffffffffffffffffffffffffffffffffffffffffffffffffffff19166020820180517bffffffffffffffffffffffffffffffffffffffffffffffffffffffff8381831617835250505050611c01565b505050565b60026001541415611938576040517f08c379a000000000000000000000000000000000000000000000000000000000815260040161192f906127ac565b60405180910390fd5b60026001819055506007600101544211611987576040517f08c379a000000000000000000000000000000000000000000000000000000000815260040161197e9061268c565b60405180910390fd5b600a6000015460165410156119d1576040517f08c379a00000000000000000000000000000000000000000000000000000000081526004016119c8906126ec565b60405180910390fd5b6000601960008373ffffffffffffffffffffffffffffffffffffffff1673ffffffffffffffffffffffffffffffffffffffff16815260200190815260200160002090506000816000015490506000811115611ae75760008260000181905550611a45816015546117d890919063ffffffff16565b601581905550611a988382600260009054906101000a900473ffffffffffffffffffffffffffffffffffffffff1673ffffffffffffffffffffffffffffffffffffffff1661186c9092919063ffffffff16565b8273ffffffffffffffffffffffffffffffffffffffff167f6352c5382c4a4578e712449ca65e83cdb392d045dfcf1cad9615189db2da244b82604051611ade91906127cc565b60405180910390a25b50506001808190555050565b60008183611b019190612a1e565b905092915050565b60008060009054906101000a900473ffffffffffffffffffffffffffffffffffffffff169050816000806101000a81548173ffffffffffffffffffffffffffffffffffffffff021916908373ffffffffffffffffffffffffffffffffffffffff1602179055508173ffffffffffffffffffffffffffffffffffffffff168173ffffffffffffffffffffffffffffffffffffffff167f8be0079c531659141344cd1fd0a4f28419497f9722a3daafe3b4186f6b6457e060405160405180910390a35050565b60008183611bdb91906129c4565b905092915050565b60008183611bf19190612993565b905092915050565b600033905090565b6000611c63826040518060400160405280602081526020017f5361666545524332303a206c6f772d6c6576656c2063616c6c206661696c65648152508573ffffffffffffffffffffffffffffffffffffffff16611cc89092919063ffffffff16565b9050600081511115611cc35780806020019051810190611c83919061203f565b611cc2576040517f08c379a0000000000000000000000000000000000000000000000000000000008152600401611cb99061276c565b60405180910390fd5b5b505050565b6060611cd78484600085611ce0565b90509392505050565b606082471015611d25576040517f08c379a0000000000000000000000000000000000000000000000000000000008152600401611d1c906125cc565b60405180910390fd5b611d2e85611df4565b611d6d576040517f08c379a0000000000000000000000000000000000000000000000000000000008152600401611d649061272c565b60405180910390fd5b6000808673ffffffffffffffffffffffffffffffffffffffff168587604051611d969190612444565b60006040518083038185875af1925050503d8060008114611dd3576040519150601f19603f3d011682016040523d82523d6000602084013e611dd8565b606091505b5091509150611de8828286611e17565b92505050949350505050565b6000808273ffffffffffffffffffffffffffffffffffffffff163b119050919050565b60608315611e2757829050611e77565b600083511115611e3a5782518084602001fd5b816040517f08c379a0000000000000000000000000000000000000000000000000000000008152600401611e6e919061254a565b60405180910390fd5b9392505050565b828054611e8a90612b12565b90600052602060002090601f016020900481019282611eac5760008555611ef3565b82601f10611ec557805160ff1916838001178555611ef3565b82800160010185558215611ef3579182015b82811115611ef2578251825591602001919060010190611ed7565b5b509050611f009190611f04565b5090565b5b80821115611f1d576000816000905550600101611f05565b5090565b6000611f34611f2f846128da565b6128b5565b905082815260208101848484011115611f5057611f4f612c36565b5b611f5b848285612ad0565b509392505050565b600081359050611f7281612fd6565b92915050565b600081519050611f8781612fd6565b92915050565b600081519050611f9c81612fed565b92915050565b600082601f830112611fb757611fb6612c31565b5b8135611fc7848260208601611f21565b91505092915050565b600081519050611fdf81613004565b92915050565b600060208284031215611ffb57611ffa612c40565b5b600061200984828501611f63565b91505092915050565b60006020828403121561202857612027612c40565b5b600061203684828501611f78565b91505092915050565b60006020828403121561205557612054612c40565b5b600061206384828501611f8d565b91505092915050565b60006020828403121561208257612081612c40565b5b600082013567ffffffffffffffff8111156120a05761209f612c3b565b5b6120ac84828501611fa2565b91505092915050565b6000602082840312156120cb576120ca612c40565b5b60006120d984828501611fd0565b91505092915050565b6120eb81612a52565b82525050565b6120fa81612a64565b82525050565b600061210b8261290b565b6121158185612921565b9350612125818560208601612adf565b80840191505092915050565b61213a81612a9a565b82525050565b600061214b82612916565b612155818561292c565b9350612165818560208601612adf565b61216e81612c45565b840191505092915050565b600061218660158361292c565b915061219182612c56565b602082019050919050565b60006121a9600b8361292c565b91506121b482612c7f565b602082019050919050565b60006121cc60268361292c565b91506121d782612ca8565b604082019050919050565b60006121ef60268361292c565b91506121fa82612cf7565b604082019050919050565b6000612212600f8361292c565b915061221d82612d46565b602082019050919050565b600061223560058361292c565b915061224082612d6f565b602082019050919050565b600061225860148361292c565b915061226382612d98565b602082019050919050565b600061227b60148361292c565b915061228682612dc1565b602082019050919050565b600061229e600a8361292c565b91506122a982612dea565b602082019050919050565b60006122c160128361292c565b91506122cc82612e13565b602082019050919050565b60006122e460208361292c565b91506122ef82612e3c565b602082019050919050565b6000612307600f8361292c565b915061231282612e65565b602082019050919050565b600061232a60128361292c565b915061233582612e8e565b602082019050919050565b600061234d600083612921565b915061235882612eb7565b600082019050919050565b600061237060108361292c565b915061237b82612eba565b602082019050919050565b6000612393601d8361292c565b915061239e82612ee3565b602082019050919050565b60006123b6600e8361292c565b91506123c182612f0c565b602082019050919050565b60006123d9602a8361292c565b91506123e482612f35565b604082019050919050565b60006123fc60138361292c565b915061240782612f84565b602082019050919050565b600061241f601f8361292c565b915061242a82612fad565b602082019050919050565b61243e81612a90565b82525050565b60006124508284612100565b915081905092915050565b600061246682612340565b9150819050919050565b600060208201905061248560008301846120e2565b92915050565b60006040820190506124a060008301856120e2565b6124ad60208301846120e2565b9392505050565b60006060820190506124c960008301866120e2565b6124d660208301856120e2565b6124e360408301846120e2565b949350505050565b600060408201905061250060008301856120e2565b61250d6020830184612435565b9392505050565b600060208201905061252960008301846120f1565b92915050565b60006020820190506125446000830184612131565b92915050565b600060208201905081810360008301526125648184612140565b905092915050565b6000602082019050818103600083015261258581612179565b9050919050565b600060208201905081810360008301526125a58161219c565b9050919050565b600060208201905081810360008301526125c5816121bf565b9050919050565b600060208201905081810360008301526125e5816121e2565b9050919050565b6000602082019050818103600083015261260581612205565b9050919050565b6000602082019050818103600083015261262581612228565b9050919050565b600060208201905081810360008301526126458161224b565b9050919050565b600060208201905081810360008301526126658161226e565b9050919050565b6000602082019050818103600083015261268581612291565b9050919050565b600060208201905081810360008301526126a5816122b4565b9050919050565b600060208201905081810360008301526126c5816122d7565b9050919050565b600060208201905081810360008301526126e5816122fa565b9050919050565b600060208201905081810360008301526127058161231d565b9050919050565b6000602082019050818103600083015261272581612363565b9050919050565b6000602082019050818103600083015261274581612386565b9050919050565b60006020820190508181036000830152612765816123a9565b9050919050565b60006020820190508181036000830152612785816123cc565b9050919050565b600060208201905081810360008301526127a5816123ef565b9050919050565b600060208201905081810360008301526127c581612412565b9050919050565b60006020820190506127e16000830184612435565b92915050565b60006040820190506127fc6000830185612435565b61280960208301846120e2565b9392505050565b60006040820190506128256000830185612435565b6128326020830184612435565b9392505050565b600060608201905061284e6000830186612435565b61285b6020830185612435565b6128686040830184612435565b949350505050565b60006080820190506128856000830187612435565b6128926020830186612435565b61289f6040830185612435565b6128ac6060830184612435565b95945050505050565b60006128bf6128d0565b90506128cb8282612b44565b919050565b6000604051905090565b600067ffffffffffffffff8211156128f5576128f4612c02565b5b6128fe82612c45565b9050602081019050919050565b600081519050919050565b600081519050919050565b600081905092915050565b600082825260208201905092915050565b600061294882612a90565b915061295383612a90565b9250827fffffffffffffffffffffffffffffffffffffffffffffffffffffffffffffffff0382111561298857612987612b75565b5b828201905092915050565b600061299e82612a90565b91506129a983612a90565b9250826129b9576129b8612ba4565b5b828204905092915050565b60006129cf82612a90565b91506129da83612a90565b9250817fffffffffffffffffffffffffffffffffffffffffffffffffffffffffffffffff0483118215151615612a1357612a12612b75565b5b828202905092915050565b6000612a2982612a90565b9150612a3483612a90565b925082821015612a4757612a46612b75565b5b828203905092915050565b6000612a5d82612a70565b9050919050565b60008115159050919050565b600073ffffffffffffffffffffffffffffffffffffffff82169050919050565b6000819050919050565b6000612aa582612aac565b9050919050565b6000612ab782612abe565b9050919050565b6000612ac982612a70565b9050919050565b82818337600083830152505050565b60005b83811015612afd578082015181840152602081019050612ae2565b83811115612b0c576000848401525b50505050565b60006002820490506001821680612b2a57607f821691505b60208210811415612b3e57612b3d612bd3565b5b50919050565b612b4d82612c45565b810181811067ffffffffffffffff82111715612b6c57612b6b612c02565b5b80604052505050565b7f4e487b7100000000000000000000000000000000000000000000000000000000600052601160045260246000fd5b7f4e487b7100000000000000000000000000000000000000000000000000000000600052601260045260246000fd5b7f4e487b7100000000000000000000000000000000000000000000000000000000600052602260045260246000fd5b7f4e487b7100000000000000000000000000000000000000000000000000000000600052604160045260246000fd5b600080fd5b600080fd5b600080fd5b600080fd5b6000601f19601f8301169050919050565b7f4e6f74206c6f6e6720656e6f7567682074696d65210000000000000000000000600082015250565b7f4e6f742073746172746564000000000000000000000000000000000000000000600082015250565b7f4f776e61626c653a206e6577206f776e657220697320746865207a65726f206160008201527f6464726573730000000000000000000000000000000000000000000000000000602082015250565b7f416464726573733a20696e73756666696369656e742062616c616e636520666f60008201527f722063616c6c0000000000000000000000000000000000000000000000000000602082015250565b7f596f7520617265206e6f74206465760000000000000000000000000000000000600082015250565b7f456e646564000000000000000000000000000000000000000000000000000000600082015250565b7f4d6f7265207468656e206d617820616d6f756e74000000000000000000000000600082015250565b7f4c657373207468656e206d696e20616d6f756e74000000000000000000000000600082015250565b7f4f76657266696c6c656400000000000000000000000000000000000000000000600082015250565b7f49444f20686173206e6f742066696e6973680000000000000000000000000000600082015250565b7f4f776e61626c653a2063616c6c6572206973206e6f7420746865206f776e6572600082015250565b7f6e6f742064697374726962757465640000000000000000000000000000000000600082015250565b7f6e6f7420726561636820736f6674206361700000000000000000000000000000600082015250565b50565b7f5472616e73666572206661696c65642e00000000000000000000000000000000600082015250565b7f416464726573733a2063616c6c20746f206e6f6e2d636f6e7472616374000000600082015250565b7f526561636820736f667420636170000000000000000000000000000000000000600082015250565b7f5361666545524332303a204552433230206f7065726174696f6e20646964206e60008201527f6f74207375636365656400000000000000000000000000000000000000000000602082015250565b7f446973747269627574656420616c726561647900000000000000000000000000600082015250565b7f5265656e7472616e637947756172643a207265656e7472616e742063616c6c00600082015250565b612fdf81612a52565b8114612fea57600080fd5b50565b612ff681612a64565b811461300157600080fd5b50565b61300d81612a90565b811461301857600080fd5b5056fea26469706673582212200eea076285de8cafa84e8a083da42f8326eec1aa10ee2a740f4c8143ce8fc6ce64736f6c63430008070033a2646970667358221220f55f67ada3d0f730132955664be4c8a5a808f73fd7fb4a7f4fd914a7af6e5e8064736f6c63430008070033",
  "immutableReferences": {},
  "source": "pragma solidity ^0.8.0;\n\nimport \"@openzeppelin/contracts/access/Ownable.sol\";\nimport \"@openzeppelin/contracts/utils/math/SafeMath.sol\";\nimport \"@openzeppelin/contracts/token/ERC20/utils/SafeERC20.sol\";\nimport \"@openzeppelin/contracts/token/ERC20/extensions/ERC20Burnable.sol\";\nimport \"./IDOPool.sol\";\n\ncontract IDOFactory is Ownable {\n    using SafeMath for uint256;\n    using SafeERC20 for ERC20Burnable;\n    using SafeERC20 for ERC20;\n\n    ERC20Burnable public feeToken;\n    address public feeWallet;\n    uint256 public feeAmount;\n    uint256 public burnPercent;\n    uint256 public divider;\n    uint256 public withdrawfeePercentage4 = 50;\n\n    uint256 public transferAmount;\n\n    struct  PoolInfoStruct{\n        uint256 startTimestamp;\n        uint256 finishTimestamp;\n        uint256 startClaimTimestamp;\n        uint256 lpWithdrawTimestamp;\n        uint256 minEthPayment;\n        uint256 maxEthPayment;\n        uint256 maxDistributedTokenAmount;\n    }\n\n    struct  Uniswap{\n        address FACTORY;\n        address ROUTER;\n        address WETH;\n    }\n\n    event IDOCreated(address indexed owner, address idoPool,\n        address indexed rewardToken,\n        string tokenURI\n        );\n\n    event TokenFeeUpdated(address newFeeToken);\n    event FeeAmountUpdated(uint256 newFeeAmount);\n    event BurnPercentUpdated(uint256 newBurnPercent, uint256 divider);\n    event FeeWalletUpdated(address newFeeWallet);\n\n    constructor(\n        ERC20Burnable _feeToken,\n        uint256 _feeAmount,\n        uint256 _burnPercent\n    ){\n        feeToken = _feeToken;\n        feeAmount = _feeAmount;\n        burnPercent = _burnPercent;\n        divider = 100;\n    }\n\n    function setWithdrawFee(uint256 _fee4) external onlyOwner {\n        withdrawfeePercentage4 = _fee4;\n    }\n\n    function setFeeToken(address _newFeeToken) external onlyOwner {\n        require(isContract(_newFeeToken), \"New address is not a token\");\n        feeToken = ERC20Burnable(_newFeeToken);\n\n        emit TokenFeeUpdated(_newFeeToken);\n    }\n\n    function setFeeAmount(uint256 _newFeeAmount) external onlyOwner {\n        feeAmount = _newFeeAmount;\n\n        emit FeeAmountUpdated(_newFeeAmount);\n    }\n\n    function setFeeWallet(address _newFeeWallet) external onlyOwner {\n        feeWallet = _newFeeWallet;\n\n        emit FeeWalletUpdated(_newFeeWallet);\n    }\n\n    function setBurnPercent(uint256 _newBurnPercent, uint256 _newDivider)\n        external\n        onlyOwner\n    {\n        require(_newBurnPercent <= _newDivider, \"Burn percent must be less than divider\");\n        burnPercent = _newBurnPercent;\n        divider = _newDivider;\n\n        emit BurnPercentUpdated(_newBurnPercent, _newDivider);\n    }\n\n    function createIDO(\n        ERC20 _rewardToken,\n        uint256 _tokenRate,\n        uint256 _listingRate,\n        IDOPool.Capacity memory _capacity,\n        IDOPool.Time memory _time,\n        IDOPool.Uniswap memory _uniswap,\n        IDOPool.LockInfo memory _lockInfo,\n        string memory _tokenURI\n    ) external payable returns(address){\n        if(feeAmount > 0){\n            uint256 burnAmount = feeAmount.mul(burnPercent).div(divider);\n\n            feeToken.safeTransferFrom(\n                msg.sender,\n                feeWallet,\n                feeAmount.sub(burnAmount)\n            );\n            feeToken.safeTransferFrom(msg.sender, address(this), burnAmount);\n            feeToken.burn(burnAmount);\n        }\n\n        IDOPool idoPool =\n            new IDOPool(\n                _rewardToken,\n                _tokenRate,\n                _listingRate,\n                _capacity,\n                _time,\n                _uniswap,\n                _lockInfo,\n                _tokenURI\n            );\n            \n        transferAmount = getTokenAmount(_capacity.hardCap, _tokenRate) + getTokenAmount(_capacity.hardCap * _lockInfo.lpPercentage / 100, _listingRate);\n        idoPool.transferOwnership(msg.sender);\n\n        _rewardToken.safeTransferFrom(\n            msg.sender,\n            address(idoPool),\n            transferAmount\n        );\n\n\n        emit IDOCreated(msg.sender, \n                        address(idoPool),\n                        address(_rewardToken),\n                        _tokenURI);\n\n        return address(idoPool);\n    }\n\n    function getTokenAmount(uint256 _ethAmount, uint256 _rate)\n        internal\n        view\n        returns (uint256)\n    {\n        return _ethAmount.mul(_rate).div(10 ** 18);\n    }\n\n    function isContract(address _addr) private view returns (bool) {\n        uint32 size;\n        assembly {\n            size := extcodesize(_addr)\n        }\n        return (size > 0);\n    }\n\n    function getTokenAmount(uint256 ethAmount, uint8 decimals, uint256 price)\n        internal\n        view\n        returns (uint256)\n    {\n        return ethAmount.mul(10**decimals).div(price);\n    }\n}",
  "sourcePath": "/Users/macbookair/Desktop/truffle/fontpadcontract/contracts/IDOFactory.sol",
  "compiler": {
    "name": "solc",
    "version": "0.8.7+commit.e28d00a7.Emscripten.clang"
  },
  "schemaVersion": "3.4.8",
  "updatedAt": "2022-08-03T17:59:40.669Z",
  "networkType": "ethereum",
  "devdoc": {
    "kind": "dev",
    "methods": {
      "owner()": {
        "details": "Returns the address of the current owner."
      },
      "renounceOwnership()": {
        "details": "Leaves the contract without owner. It will not be possible to call `onlyOwner` functions anymore. Can only be called by the current owner. NOTE: Renouncing ownership will leave the contract without an owner, thereby removing any functionality that is only available to the owner."
      },
      "transferOwnership(address)": {
        "details": "Transfers ownership of the contract to a new account (`newOwner`). Can only be called by the current owner."
      }
    },
    "version": 1
  },
  "userdoc": {
    "kind": "user",
    "methods": {},
    "version": 1
  }
}