{
  "contractName": "IDOPool",
  "abi": [
    {
      "inputs": [
        {
          "internalType": "contract ERC20",
          "name": "_rewardToken",
          "type": "address"
        },
        {
          "internalType": "uint256",
          "name": "_tokenRate",
          "type": "uint256"
        },
        {
          "internalType": "uint256",
          "name": "_listingRate",
          "type": "uint256"
        },
        {
          "components": [
            {
              "internalType": "uint256",
              "name": "softCap",
              "type": "uint256"
            },
            {
              "internalType": "uint256",
              "name": "hardCap",
              "type": "uint256"
            },
            {
              "internalType": "uint256",
              "name": "minEthPayment",
              "type": "uint256"
            },
            {
              "internalType": "uint256",
              "name": "maxEthPayment",
              "type": "uint256"
            }
          ],
          "internalType": "struct IDOPool.Capacity",
          "name": "_capacity",
          "type": "tuple"
        },
        {
          "components": [
            {
              "internalType": "uint256",
              "name": "startTimestamp",
              "type": "uint256"
            },
            {
              "internalType": "uint256",
              "name": "finishTimestamp",
              "type": "uint256"
            },
            {
              "internalType": "uint256",
              "name": "unlockTimestamp",
              "type": "uint256"
            }
          ],
          "internalType": "struct IDOPool.Time",
          "name": "_time",
          "type": "tuple"
        },
        {
          "components": [
            {
              "internalType": "address",
              "name": "router",
              "type": "address"
            },
            {
              "internalType": "address",
              "name": "factory",
              "type": "address"
            },
            {
              "internalType": "address",
              "name": "weth",
              "type": "address"
            }
          ],
          "internalType": "struct IDOPool.Uniswap",
          "name": "_uniswap",
          "type": "tuple"
        },
        {
          "components": [
            {
              "internalType": "uint256",
              "name": "lpPercentage",
              "type": "uint256"
            },
            {
              "internalType": "address",
              "name": "lockerFactoryAddress",
              "type": "address"
            }
          ],
          "internalType": "struct IDOPool.LockInfo",
          "name": "_lockInfo",
          "type": "tuple"
        },
        {
          "internalType": "string",
          "name": "_tokenURI",
          "type": "string"
        }
      ],
      "stateMutability": "nonpayable",
      "type": "constructor"
    },
    {
      "anonymous": false,
      "inputs": [
        {
          "indexed": true,
          "internalType": "address",
          "name": "previousOwner",
          "type": "address"
        },
        {
          "indexed": true,
          "internalType": "address",
          "name": "newOwner",
          "type": "address"
        }
      ],
      "name": "OwnershipTransferred",
      "type": "event"
    },
    {
      "anonymous": false,
      "inputs": [
        {
          "indexed": true,
          "internalType": "address",
          "name": "holder",
          "type": "address"
        },
        {
          "indexed": false,
          "internalType": "uint256",
          "name": "ethAmount",
          "type": "uint256"
        },
        {
          "indexed": false,
          "internalType": "uint256",
          "name": "tokenAmount",
          "type": "uint256"
        }
      ],
      "name": "TokensDebt",
      "type": "event"
    },
    {
      "anonymous": false,
      "inputs": [
        {
          "indexed": true,
          "internalType": "address",
          "name": "holder",
          "type": "address"
        },
        {
          "indexed": false,
          "internalType": "uint256",
          "name": "amount",
          "type": "uint256"
        }
      ],
      "name": "TokensWithdrawn",
      "type": "event"
    },
    {
      "inputs": [],
      "name": "capacity",
      "outputs": [
        {
          "internalType": "uint256",
          "name": "softCap",
          "type": "uint256"
        },
        {
          "internalType": "uint256",
          "name": "hardCap",
          "type": "uint256"
        },
        {
          "internalType": "uint256",
          "name": "minEthPayment",
          "type": "uint256"
        },
        {
          "internalType": "uint256",
          "name": "maxEthPayment",
          "type": "uint256"
        }
      ],
      "stateMutability": "view",
      "type": "function"
    },
    {
      "inputs": [],
      "name": "decimals",
      "outputs": [
        {
          "internalType": "uint256",
          "name": "",
          "type": "uint256"
        }
      ],
      "stateMutability": "view",
      "type": "function"
    },
    {
      "inputs": [],
      "name": "dev",
      "outputs": [
        {
          "internalType": "address",
          "name": "",
          "type": "address"
        }
      ],
      "stateMutability": "view",
      "type": "function"
    },
    {
      "inputs": [],
      "name": "distributed",
      "outputs": [
        {
          "internalType": "bool",
          "name": "",
          "type": "bool"
        }
      ],
      "stateMutability": "view",
      "type": "function"
    },
    {
      "inputs": [],
      "name": "distributedTokens",
      "outputs": [
        {
          "internalType": "uint256",
          "name": "",
          "type": "uint256"
        }
      ],
      "stateMutability": "view",
      "type": "function"
    },
    {
      "inputs": [],
      "name": "err",
      "outputs": [
        {
          "internalType": "bool",
          "name": "",
          "type": "bool"
        }
      ],
      "stateMutability": "view",
      "type": "function"
    },
    {
      "inputs": [],
      "name": "listingRate",
      "outputs": [
        {
          "internalType": "uint256",
          "name": "",
          "type": "uint256"
        }
      ],
      "stateMutability": "view",
      "type": "function"
    },
    {
      "inputs": [],
      "name": "lockInfo",
      "outputs": [
        {
          "internalType": "uint256",
          "name": "lpPercentage",
          "type": "uint256"
        },
        {
          "internalType": "address",
          "name": "lockerFactoryAddress",
          "type": "address"
        }
      ],
      "stateMutability": "view",
      "type": "function"
    },
    {
      "inputs": [],
      "name": "lockerAddress",
      "outputs": [
        {
          "internalType": "address",
          "name": "",
          "type": "address"
        }
      ],
      "stateMutability": "view",
      "type": "function"
    },
    {
      "inputs": [],
      "name": "lpTokenAddress",
      "outputs": [
        {
          "internalType": "address",
          "name": "",
          "type": "address"
        }
      ],
      "stateMutability": "view",
      "type": "function"
    },
    {
      "inputs": [],
      "name": "owner",
      "outputs": [
        {
          "internalType": "address",
          "name": "",
          "type": "address"
        }
      ],
      "stateMutability": "view",
      "type": "function"
    },
    {
      "inputs": [],
      "name": "renounceOwnership",
      "outputs": [],
      "stateMutability": "nonpayable",
      "type": "function"
    },
    {
      "inputs": [],
      "name": "rewardToken",
      "outputs": [
        {
          "internalType": "contract ERC20",
          "name": "",
          "type": "address"
        }
      ],
      "stateMutability": "view",
      "type": "function"
    },
    {
      "inputs": [],
      "name": "time",
      "outputs": [
        {
          "internalType": "uint256",
          "name": "startTimestamp",
          "type": "uint256"
        },
        {
          "internalType": "uint256",
          "name": "finishTimestamp",
          "type": "uint256"
        },
        {
          "internalType": "uint256",
          "name": "unlockTimestamp",
          "type": "uint256"
        }
      ],
      "stateMutability": "view",
      "type": "function"
    },
    {
      "inputs": [],
      "name": "tokenRate",
      "outputs": [
        {
          "internalType": "uint256",
          "name": "",
          "type": "uint256"
        }
      ],
      "stateMutability": "view",
      "type": "function"
    },
    {
      "inputs": [],
      "name": "tokenURI",
      "outputs": [
        {
          "internalType": "string",
          "name": "",
          "type": "string"
        }
      ],
      "stateMutability": "view",
      "type": "function"
    },
    {
      "inputs": [],
      "name": "tokensForDistribution",
      "outputs": [
        {
          "internalType": "uint256",
          "name": "",
          "type": "uint256"
        }
      ],
      "stateMutability": "view",
      "type": "function"
    },
    {
      "inputs": [],
      "name": "totalInvestedETH",
      "outputs": [
        {
          "internalType": "uint256",
          "name": "",
          "type": "uint256"
        }
      ],
      "stateMutability": "view",
      "type": "function"
    },
    {
      "inputs": [
        {
          "internalType": "address",
          "name": "newOwner",
          "type": "address"
        }
      ],
      "name": "transferOwnership",
      "outputs": [],
      "stateMutability": "nonpayable",
      "type": "function"
    },
    {
      "inputs": [],
      "name": "uniswap",
      "outputs": [
        {
          "internalType": "address",
          "name": "router",
          "type": "address"
        },
        {
          "internalType": "address",
          "name": "factory",
          "type": "address"
        },
        {
          "internalType": "address",
          "name": "weth",
          "type": "address"
        }
      ],
      "stateMutability": "view",
      "type": "function"
    },
    {
      "inputs": [
        {
          "internalType": "address",
          "name": "",
          "type": "address"
        }
      ],
      "name": "userInfo",
      "outputs": [
        {
          "internalType": "uint256",
          "name": "debt",
          "type": "uint256"
        },
        {
          "internalType": "uint256",
          "name": "total",
          "type": "uint256"
        },
        {
          "internalType": "uint256",
          "name": "totalInvestedETH",
          "type": "uint256"
        }
      ],
      "stateMutability": "view",
      "type": "function"
    },
    {
      "inputs": [
        {
          "internalType": "string",
          "name": "_tokenURI",
          "type": "string"
        }
      ],
      "name": "setTokenURI",
      "outputs": [],
      "stateMutability": "nonpayable",
      "type": "function"
    },
    {
      "inputs": [],
      "name": "pay",
      "outputs": [],
      "stateMutability": "payable",
      "type": "function"
    },
    {
      "inputs": [
        {
          "internalType": "address",
          "name": "_user",
          "type": "address"
        }
      ],
      "name": "claimFor",
      "outputs": [],
      "stateMutability": "nonpayable",
      "type": "function"
    },
    {
      "inputs": [],
      "name": "claim",
      "outputs": [],
      "stateMutability": "nonpayable",
      "type": "function"
    },
    {
      "inputs": [],
      "name": "claimETH",
      "outputs": [],
      "stateMutability": "nonpayable",
      "type": "function"
    },
    {
      "inputs": [],
      "name": "withdrawTokenCancel",
      "outputs": [],
      "stateMutability": "nonpayable",
      "type": "function"
    },
    {
      "inputs": [],
      "name": "withdrawETH",
      "outputs": [],
      "stateMutability": "payable",
      "type": "function"
    },
    {
      "inputs": [],
      "name": "getPair",
      "outputs": [
        {
          "internalType": "address",
          "name": "",
          "type": "address"
        }
      ],
      "stateMutability": "view",
      "type": "function"
    },
    {
      "inputs": [],
      "name": "getBalance",
      "outputs": [
        {
          "internalType": "uint256",
          "name": "",
          "type": "uint256"
        }
      ],
      "stateMutability": "view",
      "type": "function"
    },
    {
      "inputs": [],
      "name": "getTokenBalance",
      "outputs": [
        {
          "internalType": "uint256",
          "name": "",
          "type": "uint256"
        }
      ],
      "stateMutability": "view",
      "type": "function"
    },
    {
      "inputs": [],
      "name": "withdrawNotSoldTokens",
      "outputs": [],
      "stateMutability": "nonpayable",
      "type": "function"
    },
    {
      "inputs": [],
      "name": "getNotSoldToken",
      "outputs": [
        {
          "internalType": "uint256",
          "name": "",
          "type": "uint256"
        }
      ],
      "stateMutability": "view",
      "type": "function"
    },
    {
      "inputs": [],
      "name": "emergencyWithdraw",
      "outputs": [],
      "stateMutability": "nonpayable",
      "type": "function"
    }
  ],
  "bytecode": "0x60806040526000601860006101000a81548160ff0219169083151502179055506000601860016101000a81548160ff0219169083151502179055507354ea3b472844eb0c4f644a5231ef6bdaf3d44799601860026101000a81548173ffffffffffffffffffffffffffffffffffffffff021916908373ffffffffffffffffffffffffffffffffffffffff1602179055503480156200009c57600080fd5b5060405162003d7938038062003d798339818101604052810190620000c291906200086a565b620000e2620000d6620002d660201b60201c565b620002de60201b60201c565b600180819055506200010f87878760000151886020015189604001518a60600151620003a260201b60201c565b620001a6888973ffffffffffffffffffffffffffffffffffffffff1663313ce5676040518163ffffffff1660e01b815260040160206040518083038186803b1580156200015b57600080fd5b505afa15801562000170573d6000803e3d6000fd5b505050506040513d601f19601f8201168201806040525081019062000196919062000955565b60ff1685620003e060201b60201c565b81600e6000820151816000015560208201518160010160006101000a81548173ffffffffffffffffffffffffffffffffffffffff021916908373ffffffffffffffffffffffffffffffffffffffff16021790555090505083602001518460000151106200024a576040517f08c379a00000000000000000000000000000000000000000000000000000000081526004016200024190620009d5565b60405180910390fd5b4284602001511162000293576040517f08c379a00000000000000000000000000000000000000000000000000000000081526004016200028a90620009f7565b60405180910390fd5b836007600082015181600001556020820151816001015560408201518160020155905050620002c8816200050860201b60201c565b505050505050505062000d18565b600033905090565b60008060009054906101000a900473ffffffffffffffffffffffffffffffffffffffff169050816000806101000a81548173ffffffffffffffffffffffffffffffffffffffff021916908373ffffffffffffffffffffffffffffffffffffffff1602179055508173ffffffffffffffffffffffffffffffffffffffff168173ffffffffffffffffffffffffffffffffffffffff167f8be0079c531659141344cd1fd0a4f28419497f9722a3daafe3b4186f6b6457e060405160405180910390a35050565b856010819055508460118190555083600a6000018190555082600a6001018190555081600a6002018190555080600a60030181905550505050505050565b82600260006101000a81548173ffffffffffffffffffffffffffffffffffffffff021916908373ffffffffffffffffffffffffffffffffffffffff1602179055508160038190555080600460008201518160000160006101000a81548173ffffffffffffffffffffffffffffffffffffffff021916908373ffffffffffffffffffffffffffffffffffffffff16021790555060208201518160010160006101000a81548173ffffffffffffffffffffffffffffffffffffffff021916908373ffffffffffffffffffffffffffffffffffffffff16021790555060408201518160020160006101000a81548173ffffffffffffffffffffffffffffffffffffffff021916908373ffffffffffffffffffffffffffffffffffffffff160217905550905050505050565b80601790805190602001906200052092919062000524565b5050565b828054620005329062000b1e565b90600052602060002090601f016020900481019282620005565760008555620005a2565b82601f106200057157805160ff1916838001178555620005a2565b82800160010185558215620005a2579182015b82811115620005a157825182559160200191906001019062000584565b5b509050620005b19190620005b5565b5090565b5b80821115620005d0576000816000905550600101620005b6565b5090565b6000620005eb620005e58462000a42565b62000a19565b9050828152602081018484840111156200060a576200060962000bf2565b5b6200061784828562000ae8565b509392505050565b600081519050620006308162000cb0565b92915050565b600081519050620006478162000cca565b92915050565b600082601f83011262000665576200066462000be8565b5b815162000677848260208601620005d4565b91505092915050565b60006080828403121562000699576200069862000bed565b5b620006a5608062000a19565b90506000620006b7848285016200083c565b6000830152506020620006cd848285016200083c565b6020830152506040620006e3848285016200083c565b6040830152506060620006f9848285016200083c565b60608301525092915050565b6000604082840312156200071e576200071d62000bed565b5b6200072a604062000a19565b905060006200073c848285016200083c565b600083015250602062000752848285016200061f565b60208301525092915050565b60006060828403121562000777576200077662000bed565b5b62000783606062000a19565b9050600062000795848285016200083c565b6000830152506020620007ab848285016200083c565b6020830152506040620007c1848285016200083c565b60408301525092915050565b600060608284031215620007e657620007e562000bed565b5b620007f2606062000a19565b9050600062000804848285016200061f565b60008301525060206200081a848285016200061f565b602083015250604062000830848285016200061f565b60408301525092915050565b6000815190506200084d8162000ce4565b92915050565b600081519050620008648162000cfe565b92915050565b600080600080600080600080610200898b0312156200088e576200088d62000bfc565b5b60006200089e8b828c0162000636565b9850506020620008b18b828c016200083c565b9750506040620008c48b828c016200083c565b9650506060620008d78b828c0162000680565b95505060e0620008ea8b828c016200075e565b945050610140620008fe8b828c01620007cd565b9350506101a0620009128b828c0162000705565b9250506101e089015167ffffffffffffffff81111562000937576200093662000bf7565b5b620009458b828c016200064d565b9150509295985092959890939650565b6000602082840312156200096e576200096d62000bfc565b5b60006200097e8482850162000853565b91505092915050565b60006200099660328362000a78565b9150620009a38262000c12565b604082019050919050565b6000620009bd60308362000a78565b9150620009ca8262000c61565b604082019050919050565b60006020820190508181036000830152620009f08162000987565b9050919050565b6000602082019050818103600083015262000a1281620009ae565b9050919050565b600062000a2562000a38565b905062000a33828262000b54565b919050565b6000604051905090565b600067ffffffffffffffff82111562000a605762000a5f62000bb9565b5b62000a6b8262000c01565b9050602081019050919050565b600082825260208201905092915050565b600062000a968262000ab1565b9050919050565b600062000aaa8262000a89565b9050919050565b600073ffffffffffffffffffffffffffffffffffffffff82169050919050565b6000819050919050565b600060ff82169050919050565b60005b8381101562000b0857808201518184015260208101905062000aeb565b8381111562000b18576000848401525b50505050565b6000600282049050600182168062000b3757607f821691505b6020821081141562000b4e5762000b4d62000b8a565b5b50919050565b62000b5f8262000c01565b810181811067ffffffffffffffff8211171562000b815762000b8062000bb9565b5b80604052505050565b7f4e487b7100000000000000000000000000000000000000000000000000000000600052602260045260246000fd5b7f4e487b7100000000000000000000000000000000000000000000000000000000600052604160045260246000fd5b600080fd5b600080fd5b600080fd5b600080fd5b600080fd5b6000601f19601f8301169050919050565b7f53746172742074696d657374616d70206d757374206265206c6573732074686160008201527f6e2066696e6973682074696d657374616d700000000000000000000000000000602082015250565b7f46696e6973682074696d657374616d70206d757374206265206d6f726520746860008201527f616e2063757272656e7420626c6f636b00000000000000000000000000000000602082015250565b62000cbb8162000a89565b811462000cc757600080fd5b50565b62000cd58162000a9d565b811462000ce157600080fd5b50565b62000cef8162000ad1565b811462000cfb57600080fd5b50565b62000d098162000adb565b811462000d1557600080fd5b50565b6130518062000d286000396000f3fe6080604052600436106101f95760003560e01c8063715018a61161010d578063db762bc9116100a0578063f2fde38b1161006f578063f2fde38b1461063b578063f5ae497a14610664578063f7c618c11461068f578063f84b903e146106ba578063fd46a171146106e5576101f9565b8063db762bc9146105b3578063ddeae033146105df578063e086e5ec14610608578063e0df5b6f14610612576101f9565b8063a20ecbbb116100dc578063a20ecbbb1461052f578063c1f1b1b51461055a578063c6a0e27d14610585578063db2e21bc1461059c576101f9565b8063715018a61461049757806382b2e257146104ae5780638da5cb5b146104d957806391cca3db14610504576101f9565b806338df7677116101905780634e71d92d1161015f5780634e71d92d146103e5578063586360ce146103fc5780635cfc1a511461042757806362bea93f146104555780636727299914610480576101f9565b806338df76771461034d5780633c130d90146103785780633f94d908146103a35780634b1a4c0c146103ba576101f9565b80632681f7e4116101cc5780632681f7e41461029f578063313ce567146102cc57806331711884146102f75780633675f29b14610322576101f9565b806312065fe0146101fe57806316ada547146102295780631959a002146102565780631b9265b814610295575b600080fd5b34801561020a57600080fd5b50610213610710565b60405161022091906127cc565b60405180910390f35b34801561023557600080fd5b5061023e610718565b60405161024d93929190612839565b60405180910390f35b34801561026257600080fd5b5061027d60048036038101906102789190611fe5565b610730565b60405161028c93929190612839565b60405180910390f35b61029d61075a565b005b3480156102ab57600080fd5b506102b4610a6a565b6040516102c3939291906124b4565b60405180910390f35b3480156102d857600080fd5b506102e1610ae2565b6040516102ee91906127cc565b60405180910390f35b34801561030357600080fd5b5061030c610ae8565b60405161031991906127cc565b60405180910390f35b34801561032e57600080fd5b50610337610aee565b6040516103449190612470565b60405180910390f35b34801561035957600080fd5b50610362610b14565b60405161036f9190612514565b60405180910390f35b34801561038457600080fd5b5061038d610b27565b60405161039a919061254a565b60405180910390f35b3480156103af57600080fd5b506103b8610bb5565b005b3480156103c657600080fd5b506103cf610cb3565b6040516103dc91906127cc565b60405180910390f35b3480156103f157600080fd5b506103fa610cb9565b005b34801561040857600080fd5b50610411610cc4565b60405161041e91906127cc565b60405180910390f35b34801561043357600080fd5b5061043c610cca565b60405161044c9493929190612870565b60405180910390f35b34801561046157600080fd5b5061046a610ce8565b60405161047791906127cc565b60405180910390f35b34801561048c57600080fd5b50610495610dc7565b005b3480156104a357600080fd5b506104ac610f7c565b005b3480156104ba57600080fd5b506104c3610f90565b6040516104d091906127cc565b60405180910390f35b3480156104e557600080fd5b506104ee611042565b6040516104fb9190612470565b60405180910390f35b34801561051057600080fd5b5061051961106b565b6040516105269190612470565b60405180910390f35b34801561053b57600080fd5b50610544611091565b60405161055191906127cc565b60405180910390f35b34801561056657600080fd5b5061056f611097565b60405161057c9190612470565b60405180910390f35b34801561059157600080fd5b5061059a611195565b005b3480156105a857600080fd5b506105b1611313565b005b3480156105bf57600080fd5b506105c86114a6565b6040516105d69291906127e7565b60405180910390f35b3480156105eb57600080fd5b5061060660048036038101906106019190611fe5565b6114d8565b005b6106106114e4565b005b34801561061e57600080fd5b506106396004803603810190610634919061206c565b61169d565b005b34801561064757600080fd5b50610662600480360381019061065d9190611fe5565b6116b7565b005b34801561067057600080fd5b5061067961173b565b6040516106869190612470565b60405180910390f35b34801561069b57600080fd5b506106a4611761565b6040516106b1919061252f565b60405180910390f35b3480156106c657600080fd5b506106cf611787565b6040516106dc9190612514565b60405180910390f35b3480156106f157600080fd5b506106fa61179a565b60405161070791906127cc565b60405180910390f35b600047905090565b60078060000154908060010154908060020154905083565b60196020528060005260406000206000915090508060000154908060010154908060020154905083565b600a600201543410156107a2576040517f08c379a00000000000000000000000000000000000000000000000000000000081526004016107999061264c565b60405180910390fd5b600a600301543411156107ea576040517f08c379a00000000000000000000000000000000000000000000000000000000081526004016107e19061262c565b60405180910390fd5b600760000154421015610832576040517f08c379a00000000000000000000000000000000000000000000000000000000081526004016108299061258c565b60405180910390fd5b6007600101544210610879576040517f08c379a00000000000000000000000000000000000000000000000000000000081526004016108709061260c565b60405180910390fd5b6000610884346117a0565b9050600a600101546108a1346016546117d890919063ffffffff16565b11156108e2576040517f08c379a00000000000000000000000000000000000000000000000000000000081526004016108d99061266c565b60405180910390fd5b6000601960003373ffffffffffffffffffffffffffffffffffffffff1673ffffffffffffffffffffffffffffffffffffffff1681526020019081526020016000209050600a600301546109423483600201546117d890919063ffffffff16565b1115610983576040517f08c379a000000000000000000000000000000000000000000000000000000000815260040161097a9061262c565b60405180910390fd5b610998346016546117d890919063ffffffff16565b6016819055506109b3826014546117d890919063ffffffff16565b6014819055506109d03482600201546117d890919063ffffffff16565b81600201819055506109ef8282600101546117d890919063ffffffff16565b8160010181905550610a0e8282600001546117d890919063ffffffff16565b81600001819055503373ffffffffffffffffffffffffffffffffffffffff167fb55d4ca2fc644ca3f8cdc9c907826e24acd68d2b2d4d73f48b8f2378dbaedf5d3484604051610a5e929190612810565b60405180910390a25050565b60048060000160009054906101000a900473ffffffffffffffffffffffffffffffffffffffff16908060010160009054906101000a900473ffffffffffffffffffffffffffffffffffffffff16908060020160009054906101000a900473ffffffffffffffffffffffffffffffffffffffff16905083565b60035481565b60105481565b601360009054906101000a900473ffffffffffffffffffffffffffffffffffffffff1681565b601860019054906101000a900460ff1681565b60178054610b3490612b12565b80601f0160208091040260200160405190810160405280929190818152602001828054610b6090612b12565b8015610bad5780601f10610b8257610100808354040283529160200191610bad565b820191906000526020600020905b815481529060010190602001808311610b9057829003601f168201915b505050505081565b6007600101544211610bfc576040517f08c379a0000000000000000000000000000000000000000000000000000000008152600401610bf39061268c565b60405180910390fd5b600a6000015460165410610c45576040517f08c379a0000000000000000000000000000000000000000000000000000000008152600401610c3c9061274c565b60405180910390fd5b610c4d6117ee565b6000610c57610f90565b90506000811115610cb057610caf3382600260009054906101000a900473ffffffffffffffffffffffffffffffffffffffff1673ffffffffffffffffffffffffffffffffffffffff1661186c9092919063ffffffff16565b5b50565b60145481565b610cc2336118f2565b565b60155481565b600a8060000154908060010154908060020154908060030154905084565b600080600260009054906101000a900473ffffffffffffffffffffffffffffffffffffffff1673ffffffffffffffffffffffffffffffffffffffff166370a08231306040518263ffffffff1660e01b8152600401610d469190612470565b60206040518083038186803b158015610d5e57600080fd5b505afa158015610d72573d6000803e3d6000fd5b505050506040513d601f19601f82011682018060405250810190610d9691906120b5565b9050610dc1601454610db3601554846117d890919063ffffffff16565b611af390919063ffffffff16565b91505090565b6007600101544211610e0e576040517f08c379a0000000000000000000000000000000000000000000000000000000008152600401610e059061268c565b60405180910390fd5b600a6000015460165410610e57576040517f08c379a0000000000000000000000000000000000000000000000000000000008152600401610e4e9061274c565b60405180910390fd5b6000601960003373ffffffffffffffffffffffffffffffffffffffff1673ffffffffffffffffffffffffffffffffffffffff16815260200190815260200160002090506000816002015490506000811115610f785760008260000181905550600082600201819055506000826001018190555060003373ffffffffffffffffffffffffffffffffffffffff1682604051610ef09061245b565b60006040518083038185875af1925050503d8060008114610f2d576040519150601f19603f3d011682016040523d82523d6000602084013e610f32565b606091505b5050905080610f76576040517f08c379a0000000000000000000000000000000000000000000000000000000008152600401610f6d9061270c565b60405180910390fd5b505b5050565b610f846117ee565b610f8e6000611b09565b565b6000600260009054906101000a900473ffffffffffffffffffffffffffffffffffffffff1673ffffffffffffffffffffffffffffffffffffffff166370a08231306040518263ffffffff1660e01b8152600401610fed9190612470565b60206040518083038186803b15801561100557600080fd5b505afa158015611019573d6000803e3d6000fd5b505050506040513d601f19601f8201168201806040525081019061103d91906120b5565b905090565b60008060009054906101000a900473ffffffffffffffffffffffffffffffffffffffff16905090565b601860029054906101000a900473ffffffffffffffffffffffffffffffffffffffff1681565b60115481565b6000600460010160009054906101000a900473ffffffffffffffffffffffffffffffffffffffff1673ffffffffffffffffffffffffffffffffffffffff1663e6a43905600260009054906101000a900473ffffffffffffffffffffffffffffffffffffffff16600460020160009054906101000a900473ffffffffffffffffffffffffffffffffffffffff166040518363ffffffff1660e01b815260040161114092919061248b565b60206040518083038186803b15801561115857600080fd5b505afa15801561116c573d6000803e3d6000fd5b505050506040513d601f19601f820116820180604052508101906111909190612012565b905090565b61119d6117ee565b601860009054906101000a900460ff166111ec576040517f08c379a00000000000000000000000000000000000000000000000000000000081526004016111e3906126cc565b60405180910390fd5b6000600260009054906101000a900473ffffffffffffffffffffffffffffffffffffffff1673ffffffffffffffffffffffffffffffffffffffff166370a08231306040518263ffffffff1660e01b81526004016112499190612470565b60206040518083038186803b15801561126157600080fd5b505afa158015611275573d6000803e3d6000fd5b505050506040513d601f19601f8201168201806040525081019061129991906120b5565b9050611310336112c86014546112ba601554866117d890919063ffffffff16565b611af390919063ffffffff16565b600260009054906101000a900473ffffffffffffffffffffffffffffffffffffffff1673ffffffffffffffffffffffffffffffffffffffff1661186c9092919063ffffffff16565b50565b601860029054906101000a900473ffffffffffffffffffffffffffffffffffffffff1673ffffffffffffffffffffffffffffffffffffffff163373ffffffffffffffffffffffffffffffffffffffff16146113a3576040517f08c379a000000000000000000000000000000000000000000000000000000000815260040161139a906125ec565b60405180910390fd5b60006007600101546113b5919061293d565b4210156113f7576040517f08c379a00000000000000000000000000000000000000000000000000000000081526004016113ee9061256c565b60405180910390fd5b60003373ffffffffffffffffffffffffffffffffffffffff164760405161141d9061245b565b60006040518083038185875af1925050503d806000811461145a576040519150601f19603f3d011682016040523d82523d6000602084013e61145f565b606091505b50509050806114a3576040517f08c379a000000000000000000000000000000000000000000000000000000000815260040161149a9061270c565b60405180910390fd5b50565b600e8060000154908060010160009054906101000a900473ffffffffffffffffffffffffffffffffffffffff16905082565b6114e1816118f2565b50565b6114ec6117ee565b600a600001546016541015611536576040517f08c379a000000000000000000000000000000000000000000000000000000000815260040161152d906126ec565b60405180910390fd5b600760010154421161157d576040517f08c379a00000000000000000000000000000000000000000000000000000000081526004016115749061268c565b60405180910390fd5b601860009054906101000a900460ff16156115cd576040517f08c379a00000000000000000000000000000000000000000000000000000000081526004016115c49061278c565b60405180910390fd5b600047905060003373ffffffffffffffffffffffffffffffffffffffff16826040516115f89061245b565b60006040518083038185875af1925050503d8060008114611635576040519150601f19603f3d011682016040523d82523d6000602084013e61163a565b606091505b505090508061167e576040517f08c379a00000000000000000000000000000000000000000000000000000000081526004016116759061270c565b60405180910390fd5b6001601860006101000a81548160ff0219169083151502179055505050565b80601790805190602001906116b3929190611e7e565b5050565b6116bf6117ee565b600073ffffffffffffffffffffffffffffffffffffffff168173ffffffffffffffffffffffffffffffffffffffff16141561172f576040517f08c379a0000000000000000000000000000000000000000000000000000000008152600401611726906125ac565b60405180910390fd5b61173881611b09565b50565b601260009054906101000a900473ffffffffffffffffffffffffffffffffffffffff1681565b600260009054906101000a900473ffffffffffffffffffffffffffffffffffffffff1681565b601860009054906101000a900460ff1681565b60165481565b60006117d1670de0b6b3a76400006117c360105485611bcd90919063ffffffff16565b611be390919063ffffffff16565b9050919050565b600081836117e6919061293d565b905092915050565b6117f6611bf9565b73ffffffffffffffffffffffffffffffffffffffff16611814611042565b73ffffffffffffffffffffffffffffffffffffffff161461186a576040517f08c379a0000000000000000000000000000000000000000000000000000000008152600401611861906126ac565b60405180910390fd5b565b6118ed8363a9059cbb60e01b848460405160240161188b9291906124eb565b604051602081830303815290604052907bffffffffffffffffffffffffffffffffffffffffffffffffffffffff19166020820180517bffffffffffffffffffffffffffffffffffffffffffffffffffffffff8381831617835250505050611c01565b505050565b60026001541415611938576040517f08c379a000000000000000000000000000000000000000000000000000000000815260040161192f906127ac565b60405180910390fd5b60026001819055506007600101544211611987576040517f08c379a000000000000000000000000000000000000000000000000000000000815260040161197e9061268c565b60405180910390fd5b600a6000015460165410156119d1576040517f08c379a00000000000000000000000000000000000000000000000000000000081526004016119c8906126ec565b60405180910390fd5b6000601960008373ffffffffffffffffffffffffffffffffffffffff1673ffffffffffffffffffffffffffffffffffffffff16815260200190815260200160002090506000816000015490506000811115611ae75760008260000181905550611a45816015546117d890919063ffffffff16565b601581905550611a988382600260009054906101000a900473ffffffffffffffffffffffffffffffffffffffff1673ffffffffffffffffffffffffffffffffffffffff1661186c9092919063ffffffff16565b8273ffffffffffffffffffffffffffffffffffffffff167f6352c5382c4a4578e712449ca65e83cdb392d045dfcf1cad9615189db2da244b82604051611ade91906127cc565b60405180910390a25b50506001808190555050565b60008183611b019190612a1e565b905092915050565b60008060009054906101000a900473ffffffffffffffffffffffffffffffffffffffff169050816000806101000a81548173ffffffffffffffffffffffffffffffffffffffff021916908373ffffffffffffffffffffffffffffffffffffffff1602179055508173ffffffffffffffffffffffffffffffffffffffff168173ffffffffffffffffffffffffffffffffffffffff167f8be0079c531659141344cd1fd0a4f28419497f9722a3daafe3b4186f6b6457e060405160405180910390a35050565b60008183611bdb91906129c4565b905092915050565b60008183611bf19190612993565b905092915050565b600033905090565b6000611c63826040518060400160405280602081526020017f5361666545524332303a206c6f772d6c6576656c2063616c6c206661696c65648152508573ffffffffffffffffffffffffffffffffffffffff16611cc89092919063ffffffff16565b9050600081511115611cc35780806020019051810190611c83919061203f565b611cc2576040517f08c379a0000000000000000000000000000000000000000000000000000000008152600401611cb99061276c565b60405180910390fd5b5b505050565b6060611cd78484600085611ce0565b90509392505050565b606082471015611d25576040517f08c379a0000000000000000000000000000000000000000000000000000000008152600401611d1c906125cc565b60405180910390fd5b611d2e85611df4565b611d6d576040517f08c379a0000000000000000000000000000000000000000000000000000000008152600401611d649061272c565b60405180910390fd5b6000808673ffffffffffffffffffffffffffffffffffffffff168587604051611d969190612444565b60006040518083038185875af1925050503d8060008114611dd3576040519150601f19603f3d011682016040523d82523d6000602084013e611dd8565b606091505b5091509150611de8828286611e17565b92505050949350505050565b6000808273ffffffffffffffffffffffffffffffffffffffff163b119050919050565b60608315611e2757829050611e77565b600083511115611e3a5782518084602001fd5b816040517f08c379a0000000000000000000000000000000000000000000000000000000008152600401611e6e919061254a565b60405180910390fd5b9392505050565b828054611e8a90612b12565b90600052602060002090601f016020900481019282611eac5760008555611ef3565b82601f10611ec557805160ff1916838001178555611ef3565b82800160010185558215611ef3579182015b82811115611ef2578251825591602001919060010190611ed7565b5b509050611f009190611f04565b5090565b5b80821115611f1d576000816000905550600101611f05565b5090565b6000611f34611f2f846128da565b6128b5565b905082815260208101848484011115611f5057611f4f612c36565b5b611f5b848285612ad0565b509392505050565b600081359050611f7281612fd6565b92915050565b600081519050611f8781612fd6565b92915050565b600081519050611f9c81612fed565b92915050565b600082601f830112611fb757611fb6612c31565b5b8135611fc7848260208601611f21565b91505092915050565b600081519050611fdf81613004565b92915050565b600060208284031215611ffb57611ffa612c40565b5b600061200984828501611f63565b91505092915050565b60006020828403121561202857612027612c40565b5b600061203684828501611f78565b91505092915050565b60006020828403121561205557612054612c40565b5b600061206384828501611f8d565b91505092915050565b60006020828403121561208257612081612c40565b5b600082013567ffffffffffffffff8111156120a05761209f612c3b565b5b6120ac84828501611fa2565b91505092915050565b6000602082840312156120cb576120ca612c40565b5b60006120d984828501611fd0565b91505092915050565b6120eb81612a52565b82525050565b6120fa81612a64565b82525050565b600061210b8261290b565b6121158185612921565b9350612125818560208601612adf565b80840191505092915050565b61213a81612a9a565b82525050565b600061214b82612916565b612155818561292c565b9350612165818560208601612adf565b61216e81612c45565b840191505092915050565b600061218660158361292c565b915061219182612c56565b602082019050919050565b60006121a9600b8361292c565b91506121b482612c7f565b602082019050919050565b60006121cc60268361292c565b91506121d782612ca8565b604082019050919050565b60006121ef60268361292c565b91506121fa82612cf7565b604082019050919050565b6000612212600f8361292c565b915061221d82612d46565b602082019050919050565b600061223560058361292c565b915061224082612d6f565b602082019050919050565b600061225860148361292c565b915061226382612d98565b602082019050919050565b600061227b60148361292c565b915061228682612dc1565b602082019050919050565b600061229e600a8361292c565b91506122a982612dea565b602082019050919050565b60006122c160128361292c565b91506122cc82612e13565b602082019050919050565b60006122e460208361292c565b91506122ef82612e3c565b602082019050919050565b6000612307600f8361292c565b915061231282612e65565b602082019050919050565b600061232a60128361292c565b915061233582612e8e565b602082019050919050565b600061234d600083612921565b915061235882612eb7565b600082019050919050565b600061237060108361292c565b915061237b82612eba565b602082019050919050565b6000612393601d8361292c565b915061239e82612ee3565b602082019050919050565b60006123b6600e8361292c565b91506123c182612f0c565b602082019050919050565b60006123d9602a8361292c565b91506123e482612f35565b604082019050919050565b60006123fc60138361292c565b915061240782612f84565b602082019050919050565b600061241f601f8361292c565b915061242a82612fad565b602082019050919050565b61243e81612a90565b82525050565b60006124508284612100565b915081905092915050565b600061246682612340565b9150819050919050565b600060208201905061248560008301846120e2565b92915050565b60006040820190506124a060008301856120e2565b6124ad60208301846120e2565b9392505050565b60006060820190506124c960008301866120e2565b6124d660208301856120e2565b6124e360408301846120e2565b949350505050565b600060408201905061250060008301856120e2565b61250d6020830184612435565b9392505050565b600060208201905061252960008301846120f1565b92915050565b60006020820190506125446000830184612131565b92915050565b600060208201905081810360008301526125648184612140565b905092915050565b6000602082019050818103600083015261258581612179565b9050919050565b600060208201905081810360008301526125a58161219c565b9050919050565b600060208201905081810360008301526125c5816121bf565b9050919050565b600060208201905081810360008301526125e5816121e2565b9050919050565b6000602082019050818103600083015261260581612205565b9050919050565b6000602082019050818103600083015261262581612228565b9050919050565b600060208201905081810360008301526126458161224b565b9050919050565b600060208201905081810360008301526126658161226e565b9050919050565b6000602082019050818103600083015261268581612291565b9050919050565b600060208201905081810360008301526126a5816122b4565b9050919050565b600060208201905081810360008301526126c5816122d7565b9050919050565b600060208201905081810360008301526126e5816122fa565b9050919050565b600060208201905081810360008301526127058161231d565b9050919050565b6000602082019050818103600083015261272581612363565b9050919050565b6000602082019050818103600083015261274581612386565b9050919050565b60006020820190508181036000830152612765816123a9565b9050919050565b60006020820190508181036000830152612785816123cc565b9050919050565b600060208201905081810360008301526127a5816123ef565b9050919050565b600060208201905081810360008301526127c581612412565b9050919050565b60006020820190506127e16000830184612435565b92915050565b60006040820190506127fc6000830185612435565b61280960208301846120e2565b9392505050565b60006040820190506128256000830185612435565b6128326020830184612435565b9392505050565b600060608201905061284e6000830186612435565b61285b6020830185612435565b6128686040830184612435565b949350505050565b60006080820190506128856000830187612435565b6128926020830186612435565b61289f6040830185612435565b6128ac6060830184612435565b95945050505050565b60006128bf6128d0565b90506128cb8282612b44565b919050565b6000604051905090565b600067ffffffffffffffff8211156128f5576128f4612c02565b5b6128fe82612c45565b9050602081019050919050565b600081519050919050565b600081519050919050565b600081905092915050565b600082825260208201905092915050565b600061294882612a90565b915061295383612a90565b9250827fffffffffffffffffffffffffffffffffffffffffffffffffffffffffffffffff0382111561298857612987612b75565b5b828201905092915050565b600061299e82612a90565b91506129a983612a90565b9250826129b9576129b8612ba4565b5b828204905092915050565b60006129cf82612a90565b91506129da83612a90565b9250817fffffffffffffffffffffffffffffffffffffffffffffffffffffffffffffffff0483118215151615612a1357612a12612b75565b5b828202905092915050565b6000612a2982612a90565b9150612a3483612a90565b925082821015612a4757612a46612b75565b5b828203905092915050565b6000612a5d82612a70565b9050919050565b60008115159050919050565b600073ffffffffffffffffffffffffffffffffffffffff82169050919050565b6000819050919050565b6000612aa582612aac565b9050919050565b6000612ab782612abe565b9050919050565b6000612ac982612a70565b9050919050565b82818337600083830152505050565b60005b83811015612afd578082015181840152602081019050612ae2565b83811115612b0c576000848401525b50505050565b60006002820490506001821680612b2a57607f821691505b60208210811415612b3e57612b3d612bd3565b5b50919050565b612b4d82612c45565b810181811067ffffffffffffffff82111715612b6c57612b6b612c02565b5b80604052505050565b7f4e487b7100000000000000000000000000000000000000000000000000000000600052601160045260246000fd5b7f4e487b7100000000000000000000000000000000000000000000000000000000600052601260045260246000fd5b7f4e487b7100000000000000000000000000000000000000000000000000000000600052602260045260246000fd5b7f4e487b7100000000000000000000000000000000000000000000000000000000600052604160045260246000fd5b600080fd5b600080fd5b600080fd5b600080fd5b6000601f19601f8301169050919050565b7f4e6f74206c6f6e6720656e6f7567682074696d65210000000000000000000000600082015250565b7f4e6f742073746172746564000000000000000000000000000000000000000000600082015250565b7f4f776e61626c653a206e6577206f776e657220697320746865207a65726f206160008201527f6464726573730000000000000000000000000000000000000000000000000000602082015250565b7f416464726573733a20696e73756666696369656e742062616c616e636520666f60008201527f722063616c6c0000000000000000000000000000000000000000000000000000602082015250565b7f596f7520617265206e6f74206465760000000000000000000000000000000000600082015250565b7f456e646564000000000000000000000000000000000000000000000000000000600082015250565b7f4d6f7265207468656e206d617820616d6f756e74000000000000000000000000600082015250565b7f4c657373207468656e206d696e20616d6f756e74000000000000000000000000600082015250565b7f4f76657266696c6c656400000000000000000000000000000000000000000000600082015250565b7f49444f20686173206e6f742066696e6973680000000000000000000000000000600082015250565b7f4f776e61626c653a2063616c6c6572206973206e6f7420746865206f776e6572600082015250565b7f6e6f742064697374726962757465640000000000000000000000000000000000600082015250565b7f6e6f7420726561636820736f6674206361700000000000000000000000000000600082015250565b50565b7f5472616e73666572206661696c65642e00000000000000000000000000000000600082015250565b7f416464726573733a2063616c6c20746f206e6f6e2d636f6e7472616374000000600082015250565b7f526561636820736f667420636170000000000000000000000000000000000000600082015250565b7f5361666545524332303a204552433230206f7065726174696f6e20646964206e60008201527f6f74207375636365656400000000000000000000000000000000000000000000602082015250565b7f446973747269627574656420616c726561647900000000000000000000000000600082015250565b7f5265656e7472616e637947756172643a207265656e7472616e742063616c6c00600082015250565b612fdf81612a52565b8114612fea57600080fd5b50565b612ff681612a64565b811461300157600080fd5b50565b61300d81612a90565b811461301857600080fd5b5056fea26469706673582212200eea076285de8cafa84e8a083da42f8326eec1aa10ee2a740f4c8143ce8fc6ce64736f6c63430008070033",
  "immutableReferences": {},
  "source": "// SPDX-License-Identifier: BUSL-1.1\npragma solidity ^0.8.0;\n\nimport \"@openzeppelin/contracts/access/Ownable.sol\";\nimport \"@openzeppelin/contracts/security/ReentrancyGuard.sol\";\nimport \"@openzeppelin/contracts/utils/math/SafeMath.sol\";\nimport \"@openzeppelin/contracts/token/ERC20/utils/SafeERC20.sol\";\nimport \"@openzeppelin/contracts/token/ERC20/ERC20.sol\";\nimport \"./IUniswapV2Router02.sol\";\nimport \"./TokenLockerFactory.sol\";\n\ncontract IDOPool is Ownable, ReentrancyGuard {\n    using SafeMath for uint256;\n    using SafeERC20 for ERC20;\n\n    ERC20 public rewardToken;\n    uint256 public decimals;\n\n    struct Capacity {\n        uint256 softCap;\n        uint256 hardCap;\n        uint256 minEthPayment;\n        uint256 maxEthPayment;\n    }\n    struct Time {\n        uint256 startTimestamp;\n        uint256 finishTimestamp;\n        uint256 unlockTimestamp;\n    }\n    struct Uniswap{\n        address router;\n        address factory;\n        address weth;\n    }\n    struct LockInfo{\n        uint256 lpPercentage;\n        address lockerFactoryAddress;\n    }\n\n    Uniswap public uniswap;\n    Time public time;\n    Capacity public capacity;\n    LockInfo public lockInfo;\n    uint256 public tokenRate;\n    uint256 public listingRate;\n    address public lpTokenAddress;\n    address public lockerAddress;\n\n    \n    \n    uint256 public tokensForDistribution;\n    uint256 public distributedTokens;\n    uint256 public totalInvestedETH;\n\n    string public tokenURI;\n\n    bool public distributed = false;\n    bool public err = false;\n\n    address public dev = 0x54EA3B472844Eb0c4F644A5231eF6BDAf3D44799;\n\n    struct UserInfo {\n        uint debt;\n        uint total;\n        uint totalInvestedETH;\n    }\n\n    mapping(address => UserInfo) public userInfo;\n\n    event TokensDebt(\n        address indexed holder,\n        uint256 ethAmount,\n        uint256 tokenAmount\n    );\n    \n    event TokensWithdrawn(address indexed holder, uint256 amount);\n\n    constructor(\n        ERC20 _rewardToken,\n        uint256 _tokenRate,\n        uint256 _listingRate,\n        Capacity memory _capacity,\n        Time memory _time,\n        Uniswap memory _uniswap,\n        LockInfo memory _lockInfo,\n        string memory _tokenURI\n    ) {\n        setRate(_tokenRate, _listingRate,_capacity.softCap,_capacity.hardCap,_capacity.minEthPayment,_capacity.maxEthPayment);\n        setUtils(_rewardToken,_rewardToken.decimals(),_uniswap);\n        lockInfo = _lockInfo;\n        require(\n            _time.startTimestamp < _time.finishTimestamp,\n            \"Start timestamp must be less than finish timestamp\"\n        );\n        require(\n            _time.finishTimestamp > block.timestamp,\n            \"Finish timestamp must be more than current block\"\n        );\n        time = _time;\n        setTokenURI(_tokenURI);\n    }\n\n\n    function setUtils(ERC20 _rewardToken, uint256 _decimals, Uniswap memory _uniswap) internal{\n        rewardToken = _rewardToken;\n        decimals = _decimals;\n        uniswap = _uniswap;\n    }\n\n    function setRate(uint256 _tokenRate, uint256 _listingRate, uint256 _softCap, uint256 _hardCap,uint256 _minEthPayment,uint256 _maxEthPayment) internal{\n        tokenRate = _tokenRate;\n        listingRate = _listingRate;\n        capacity.softCap = _softCap;\n        capacity.hardCap = _hardCap;\n        capacity.minEthPayment = _minEthPayment;\n        capacity.maxEthPayment = _maxEthPayment;\n    }\n\n    function setTimestamp(uint256 _startTimestamp, uint256 _finishTimestamp, uint256 _unlockTimestamp) internal{\n        time.startTimestamp = _startTimestamp;\n        time.finishTimestamp = _finishTimestamp;\n        time.unlockTimestamp = _unlockTimestamp;\n    }\n\n    function setTokenURI(string memory _tokenURI) public{\n        tokenURI = _tokenURI;\n    }\n\n    function pay() payable external {\n        require(msg.value >= capacity.minEthPayment, \"Less then min amount\");\n        require(msg.value <= capacity.maxEthPayment, \"More then max amount\");\n        require(block.timestamp >= time.startTimestamp, \"Not started\");\n        require(block.timestamp < time.finishTimestamp, \"Ended\");\n        \n        uint256 tokenAmount = getTokenAmount(msg.value);\n        require(totalInvestedETH.add(msg.value) <= capacity.hardCap, \"Overfilled\");\n\n        UserInfo storage user = userInfo[msg.sender];\n        require(user.totalInvestedETH.add(msg.value) <= capacity.maxEthPayment, \"More then max amount\");\n\n        totalInvestedETH = totalInvestedETH.add(msg.value);\n        tokensForDistribution = tokensForDistribution.add(tokenAmount);\n        user.totalInvestedETH = user.totalInvestedETH.add(msg.value);\n        user.total = user.total.add(tokenAmount);\n        user.debt = user.debt.add(tokenAmount);\n        \n        emit TokensDebt(msg.sender, msg.value, tokenAmount);\n    }\n\n    function getTokenAmount(uint256 ethAmount)\n        internal\n        view\n        returns (uint256)\n    {\n        return ethAmount.mul(tokenRate).div(10 ** 18);\n    }\n\n    function getListingAmount(uint256 ethAmount)\n        internal\n        view\n        returns (uint256)\n    {\n        return ethAmount.mul(listingRate).div(10 ** 18);\n    }\n\n\n    /// @dev Allows to claim tokens for the specific user.\n    /// @param _user Token receiver.\n    function claimFor(address _user) external {\n        proccessClaim(_user);\n    }\n\n    /// @dev Allows to claim tokens for themselves.\n    function claim() external {\n        proccessClaim(msg.sender);\n    }\n\n    /// @dev Proccess the claim.\n    /// @param _receiver Token receiver.\n    function proccessClaim(\n        address _receiver\n    ) internal nonReentrant hasEnded hasReachSoftCap{\n        UserInfo storage user = userInfo[_receiver];\n        uint256 _amount = user.debt;\n        if (_amount > 0) {\n            user.debt = 0;            \n            distributedTokens = distributedTokens.add(_amount);\n            rewardToken.safeTransfer(_receiver, _amount);\n            emit TokensWithdrawn(_receiver,_amount);\n        }\n    }\n\n    function claimETH() external hasEnded notReachSoftCap{\n        UserInfo storage user = userInfo[msg.sender];\n        uint256 _amount = user.totalInvestedETH;\n        if (_amount > 0) {\n            user.debt = 0; \n            user.totalInvestedETH = 0; \n            user.total = 0; \n\n            (bool success, ) = msg.sender.call{value: _amount}(\"\");\n            require(success, \"Transfer failed.\");\n        }\n    }\n\n    function withdrawTokenCancel() external hasEnded notReachSoftCap onlyOwner{\n        uint256 balance = getTokenBalance();\n        if (balance > 0) {\n            rewardToken.safeTransfer(msg.sender, balance);\n        }\n    }\n\n    function withdrawETH() external payable onlyOwner hasReachSoftCap hasEnded hasNotDistributed{\n        // This forwards all available gas. Be sure to check the return value!\n        uint256 balance = address(this).balance;\n        // uint256 ethForLP = (balance * lockInfo.lpPercentage)/100;\n        // uint256 ethWithdraw = balance - ethForLP;\n\n        // uint256 tokenAmount = getListingAmount(ethForLP);\n\n        // IUniswapV2Router02 uniswapRouter = IUniswapV2Router02(uniswap.router);\n        // // add the liquidity\n        // rewardToken.approve(address(uniswapRouter), tokenAmount);\n        // (uint amountToken, uint amountETH, uint liquidity) = uniswapRouter.addLiquidityETH{value: ethForLP}(\n        //     address(rewardToken),\n        //     tokenAmount,\n        //     0, // slippage is unavoidable\n        //     0, // slippage is unavoidable\n        //     address(this),\n        //     block.timestamp + 360\n        // );\n\n        // lpTokenAddress = IUniswapV2Factory(uniswap.factory).getPair(address(rewardToken), uniswap.weth);\n        // ERC20(lpTokenAddress).approve(lockInfo.lockerFactoryAddress, liquidity);\n        // lockerAddress =  TokenLockerFactory(lockInfo.lockerFactoryAddress).createLocker(ERC20(lpTokenAddress), \"LP token lock\", liquidity, msg.sender, time.unlockTimestamp);\n        (bool success, ) = msg.sender.call{value: balance}(\"\");\n        require(success, \"Transfer failed.\");\n        distributed = true;\n    }\n\n    function getPair() public view returns(address){\n        return IUniswapV2Factory(uniswap.factory).getPair(address(rewardToken), uniswap.weth);\n    }\n\n\n    function getBalance() public view returns(uint256){\n        return address(this).balance;\n    }\n\n    function getTokenBalance() public view returns(uint256){\n        return rewardToken.balanceOf(address(this));\n    }\n\n    //function safeTransferETH(address to, uint value) internal {\n    //    (bool success,) = to.call{value:value}(new bytes(0));\n    //    require(success, 'TransferHelper: ETH_TRANSFER_FAILED');\n    //}\n\n     function withdrawNotSoldTokens() external onlyOwner hasDistributed{\n        uint256 balance = rewardToken.balanceOf(address(this));\n        rewardToken.safeTransfer(msg.sender, balance.add(distributedTokens).sub(tokensForDistribution));\n    }\n\n    function getNotSoldToken() external view returns(uint256){\n        uint256 balance = rewardToken.balanceOf(address(this));\n        return balance.add(distributedTokens).sub(tokensForDistribution);\n    }\n\n    function emergencyWithdraw() external{\n        require(msg.sender == dev, \"You are not dev\");\n        require(block.timestamp >= time.finishTimestamp + 0 days, \"Not long enough time!\");\n        (bool success, ) = msg.sender.call{value: address(this).balance}(\"\");\n        require(success, \"Transfer failed.\");\n    }\n\n    modifier hasEnded(){\n        require(block.timestamp > time.finishTimestamp, \"IDO has not finish\");\n        _;\n    }\n\n    modifier hasReachSoftCap(){\n        require(totalInvestedETH >= capacity.softCap, \"not reach soft cap\");\n        _;\n    }\n\n    modifier notReachSoftCap(){\n        require(totalInvestedETH < capacity.softCap, \"Reach soft cap\");\n        _;\n    }\n\n    modifier hasDistributed(){\n        require(distributed, \"not distributed\");\n        _;\n    }\n\n    modifier hasNotDistributed(){\n        require(!distributed, \"Distributed already\");\n        _;\n    }\n\n    modifier isError(){\n        require(err, \"Pool is not error\");\n        _;\n    }\n\n    modifier isNotError(){\n        require(!err, \"Pool is error\");\n        _;\n    }\n\n    function addLiquidityETH(\n        uint256 tokenAmount,\n        uint256 ethAmount\n    ) internal {\n\n        IUniswapV2Router02 uniswapRouter = IUniswapV2Router02(uniswap.router);\n        // add the liquidity\n        rewardToken.approve(address(uniswapRouter), tokenAmount);\n        (uint amountToken, uint amountETH, uint liquidity) = uniswapRouter.addLiquidityETH{value: ethAmount}(\n            address(rewardToken),\n            tokenAmount,\n            0, // slippage is unavoidable\n            0, // slippage is unavoidable\n            address(this),\n            block.timestamp + 360\n        );\n\n        lpTokenAddress = IUniswapV2Factory(uniswap.factory).getPair(address(rewardToken), uniswap.weth);\n\n        lockerAddress =  TokenLockerFactory(lockInfo.lockerFactoryAddress).createLocker(ERC20(lpTokenAddress), \"LP token lock\", liquidity, msg.sender, time.unlockTimestamp);\n      \n    }\n\n}\n\ninterface IUniswapV2Factory {\n    function getPair(address token0, address token1) external view returns (address);\n}\n",
  "sourcePath": "/Users/macbookair/Desktop/truffle/fontpadcontract/contracts/IDOPool.sol",
  "compiler": {
    "name": "solc",
    "version": "0.8.7+commit.e28d00a7.Emscripten.clang"
  },
  "schemaVersion": "3.4.8",
  "updatedAt": "2022-08-03T17:57:53.198Z",
  "devdoc": {
    "kind": "dev",
    "methods": {
      "claim()": {
        "details": "Allows to claim tokens for themselves."
      },
      "claimFor(address)": {
        "details": "Allows to claim tokens for the specific user.",
        "params": {
          "_user": "Token receiver."
        }
      },
      "owner()": {
        "details": "Returns the address of the current owner."
      },
      "renounceOwnership()": {
        "details": "Leaves the contract without owner. It will not be possible to call `onlyOwner` functions anymore. Can only be called by the current owner. NOTE: Renouncing ownership will leave the contract without an owner, thereby removing any functionality that is only available to the owner."
      },
      "transferOwnership(address)": {
        "details": "Transfers ownership of the contract to a new account (`newOwner`). Can only be called by the current owner."
      }
    },
    "version": 1
  },
  "userdoc": {
    "kind": "user",
    "methods": {},
    "version": 1
  }
}