{
  "contractName": "TokenLocker",
  "abi": [
    {
      "inputs": [
        {
          "internalType": "contract ERC20",
          "name": "_token",
          "type": "address"
        },
        {
          "internalType": "string",
          "name": "_name",
          "type": "string"
        },
        {
          "internalType": "address",
          "name": "_withdrawer",
          "type": "address"
        },
        {
          "internalType": "uint256",
          "name": "_withdrawTime",
          "type": "uint256"
        }
      ],
      "stateMutability": "nonpayable",
      "type": "constructor"
    },
    {
      "anonymous": false,
      "inputs": [
        {
          "indexed": true,
          "internalType": "address",
          "name": "previousOwner",
          "type": "address"
        },
        {
          "indexed": true,
          "internalType": "address",
          "name": "newOwner",
          "type": "address"
        }
      ],
      "name": "OwnershipTransferred",
      "type": "event"
    },
    {
      "anonymous": false,
      "inputs": [
        {
          "indexed": false,
          "internalType": "uint256",
          "name": "timestamp",
          "type": "uint256"
        },
        {
          "indexed": false,
          "internalType": "uint256",
          "name": "amount",
          "type": "uint256"
        }
      ],
      "name": "withdrawTokenEvent",
      "type": "event"
    },
    {
      "inputs": [],
      "name": "name",
      "outputs": [
        {
          "internalType": "string",
          "name": "",
          "type": "string"
        }
      ],
      "stateMutability": "view",
      "type": "function"
    },
    {
      "inputs": [],
      "name": "owner",
      "outputs": [
        {
          "internalType": "address",
          "name": "",
          "type": "address"
        }
      ],
      "stateMutability": "view",
      "type": "function"
    },
    {
      "inputs": [],
      "name": "renounceOwnership",
      "outputs": [],
      "stateMutability": "nonpayable",
      "type": "function"
    },
    {
      "inputs": [],
      "name": "token",
      "outputs": [
        {
          "internalType": "contract ERC20",
          "name": "",
          "type": "address"
        }
      ],
      "stateMutability": "view",
      "type": "function"
    },
    {
      "inputs": [
        {
          "internalType": "address",
          "name": "newOwner",
          "type": "address"
        }
      ],
      "name": "transferOwnership",
      "outputs": [],
      "stateMutability": "nonpayable",
      "type": "function"
    },
    {
      "inputs": [],
      "name": "withdrawTime",
      "outputs": [
        {
          "internalType": "uint256",
          "name": "",
          "type": "uint256"
        }
      ],
      "stateMutability": "view",
      "type": "function"
    },
    {
      "inputs": [],
      "name": "withdrawer",
      "outputs": [
        {
          "internalType": "address",
          "name": "",
          "type": "address"
        }
      ],
      "stateMutability": "view",
      "type": "function"
    },
    {
      "inputs": [
        {
          "internalType": "uint256",
          "name": "amount",
          "type": "uint256"
        }
      ],
      "name": "withdrawToken",
      "outputs": [],
      "stateMutability": "nonpayable",
      "type": "function"
    },
    {
      "inputs": [],
      "name": "withdrawTokenAll",
      "outputs": [],
      "stateMutability": "nonpayable",
      "type": "function"
    },
    {
      "inputs": [],
      "name": "tokenRemaining",
      "outputs": [
        {
          "internalType": "uint256",
          "name": "",
          "type": "uint256"
        }
      ],
      "stateMutability": "view",
      "type": "function"
    }
  ],
  "bytecode": "0x60806040523480156200001157600080fd5b50604051620017ab380380620017ab833981810160405281019062000037919062000387565b620000576200004b6200014860201b60201c565b6200015060201b60201c565b4281116200009c576040517f08c379a000000000000000000000000000000000000000000000000000000000815260040162000093906200043f565b60405180910390fd5b83600160006101000a81548173ffffffffffffffffffffffffffffffffffffffff021916908373ffffffffffffffffffffffffffffffffffffffff1602179055508260049080519060200190620000f592919062000214565b5081600260006101000a81548173ffffffffffffffffffffffffffffffffffffffff021916908373ffffffffffffffffffffffffffffffffffffffff1602179055508060038190555050505050620006e5565b600033905090565b60008060009054906101000a900473ffffffffffffffffffffffffffffffffffffffff169050816000806101000a81548173ffffffffffffffffffffffffffffffffffffffff021916908373ffffffffffffffffffffffffffffffffffffffff1602179055508173ffffffffffffffffffffffffffffffffffffffff168173ffffffffffffffffffffffffffffffffffffffff167f8be0079c531659141344cd1fd0a4f28419497f9722a3daafe3b4186f6b6457e060405160405180910390a35050565b828054620002229062000559565b90600052602060002090601f01602090048101928262000246576000855562000292565b82601f106200026157805160ff191683800117855562000292565b8280016001018555821562000292579182015b828111156200029157825182559160200191906001019062000274565b5b509050620002a19190620002a5565b5090565b5b80821115620002c0576000816000905550600101620002a6565b5090565b6000620002db620002d5846200048a565b62000461565b905082815260208101848484011115620002fa57620002f962000628565b5b6200030784828562000523565b509392505050565b600081519050620003208162000697565b92915050565b6000815190506200033781620006b1565b92915050565b600082601f83011262000355576200035462000623565b5b815162000367848260208601620002c4565b91505092915050565b6000815190506200038181620006cb565b92915050565b60008060008060808587031215620003a457620003a362000632565b5b6000620003b48782880162000326565b945050602085015167ffffffffffffffff811115620003d857620003d76200062d565b5b620003e6878288016200033d565b9350506040620003f9878288016200030f565b92505060606200040c8782880162000370565b91505092959194509250565b600062000427602583620004c0565b9150620004348262000648565b604082019050919050565b600060208201905081810360008301526200045a8162000418565b9050919050565b60006200046d62000480565b90506200047b82826200058f565b919050565b6000604051905090565b600067ffffffffffffffff821115620004a857620004a7620005f4565b5b620004b38262000637565b9050602081019050919050565b600082825260208201905092915050565b6000620004de82620004f9565b9050919050565b6000620004f282620004d1565b9050919050565b600073ffffffffffffffffffffffffffffffffffffffff82169050919050565b6000819050919050565b60005b838110156200054357808201518184015260208101905062000526565b8381111562000553576000848401525b50505050565b600060028204905060018216806200057257607f821691505b60208210811415620005895762000588620005c5565b5b50919050565b6200059a8262000637565b810181811067ffffffffffffffff82111715620005bc57620005bb620005f4565b5b80604052505050565b7f4e487b7100000000000000000000000000000000000000000000000000000000600052602260045260246000fd5b7f4e487b7100000000000000000000000000000000000000000000000000000000600052604160045260246000fd5b600080fd5b600080fd5b600080fd5b600080fd5b6000601f19601f8301169050919050565b7f77697468647261772074696d652073686f756c64206265206d6f72652074686160008201527f6e206e6f77000000000000000000000000000000000000000000000000000000602082015250565b620006a281620004d1565b8114620006ae57600080fd5b50565b620006bc81620004e5565b8114620006c857600080fd5b50565b620006d68162000519565b8114620006e257600080fd5b50565b6110b680620006f56000396000f3fe608060405234801561001057600080fd5b506004361061009e5760003560e01c80637fc0254d116100665780637fc0254d146101235780638da5cb5b1461012d578063cdc184241461014b578063f2fde38b14610169578063fc0c546a146101855761009e565b806306fdde03146100a357806345cb3dde146100c157806350baa622146100df57806368646cf0146100fb578063715018a614610119575b600080fd5b6100ab6101a3565b6040516100b89190610cd8565b60405180910390f35b6100c9610231565b6040516100d69190610d9a565b60405180910390f35b6100f960048036038101906100f49190610b0a565b610237565b005b6101036104e4565b6040516101109190610d9a565b60405180910390f35b610121610596565b005b61012b6105aa565b005b610135610819565b6040516101429190610c79565b60405180910390f35b610153610842565b6040516101609190610c79565b60405180910390f35b610183600480360381019061017e9190610ab0565b610868565b005b61018d6108ec565b60405161019a9190610cbd565b60405180910390f35b600480546101b090610eab565b80601f01602080910402602001604051908101604052809291908181526020018280546101dc90610eab565b80156102295780601f106101fe57610100808354040283529160200191610229565b820191906000526020600020905b81548152906001019060200180831161020c57829003601f168201915b505050505081565b60035481565b600160009054906101000a900473ffffffffffffffffffffffffffffffffffffffff1673ffffffffffffffffffffffffffffffffffffffff166370a08231306040518263ffffffff1660e01b81526004016102929190610c79565b60206040518083038186803b1580156102aa57600080fd5b505afa1580156102be573d6000803e3d6000fd5b505050506040513d601f19601f820116820180604052508101906102e29190610b37565b811015610324576040517f08c379a000000000000000000000000000000000000000000000000000000000815260040161031b90610d7a565b60405180910390fd5b600260009054906101000a900473ffffffffffffffffffffffffffffffffffffffff1673ffffffffffffffffffffffffffffffffffffffff163373ffffffffffffffffffffffffffffffffffffffff16146103b4576040517f08c379a00000000000000000000000000000000000000000000000000000000081526004016103ab90610d5a565b60405180910390fd5b60035442116103f8576040517f08c379a00000000000000000000000000000000000000000000000000000000081526004016103ef90610d1a565b60405180910390fd5b600160009054906101000a900473ffffffffffffffffffffffffffffffffffffffff1673ffffffffffffffffffffffffffffffffffffffff1663a9059cbb33836040518363ffffffff1660e01b8152600401610455929190610c94565b602060405180830381600087803b15801561046f57600080fd5b505af1158015610483573d6000803e3d6000fd5b505050506040513d601f19601f820116820180604052508101906104a79190610add565b507fa4fa6d4c08e67b66804f329195ed12feecfe9057e79e17edf30ff90f6cf37d8f42826040516104d9929190610db5565b60405180910390a150565b6000600160009054906101000a900473ffffffffffffffffffffffffffffffffffffffff1673ffffffffffffffffffffffffffffffffffffffff166370a08231306040518263ffffffff1660e01b81526004016105419190610c79565b60206040518083038186803b15801561055957600080fd5b505afa15801561056d573d6000803e3d6000fd5b505050506040513d601f19601f820116820180604052508101906105919190610b37565b905090565b61059e610912565b6105a86000610990565b565b600260009054906101000a900473ffffffffffffffffffffffffffffffffffffffff1673ffffffffffffffffffffffffffffffffffffffff163373ffffffffffffffffffffffffffffffffffffffff161461063a576040517f08c379a000000000000000000000000000000000000000000000000000000000815260040161063190610d5a565b60405180910390fd5b600354421161067e576040517f08c379a000000000000000000000000000000000000000000000000000000000815260040161067590610d1a565b60405180910390fd5b6000600160009054906101000a900473ffffffffffffffffffffffffffffffffffffffff1673ffffffffffffffffffffffffffffffffffffffff166370a08231306040518263ffffffff1660e01b81526004016106db9190610c79565b60206040518083038186803b1580156106f357600080fd5b505afa158015610707573d6000803e3d6000fd5b505050506040513d601f19601f8201168201806040525081019061072b9190610b37565b9050600160009054906101000a900473ffffffffffffffffffffffffffffffffffffffff1673ffffffffffffffffffffffffffffffffffffffff1663a9059cbb33836040518363ffffffff1660e01b815260040161078a929190610c94565b602060405180830381600087803b1580156107a457600080fd5b505af11580156107b8573d6000803e3d6000fd5b505050506040513d601f19601f820116820180604052508101906107dc9190610add565b507fa4fa6d4c08e67b66804f329195ed12feecfe9057e79e17edf30ff90f6cf37d8f428260405161080e929190610db5565b60405180910390a150565b60008060009054906101000a900473ffffffffffffffffffffffffffffffffffffffff16905090565b600260009054906101000a900473ffffffffffffffffffffffffffffffffffffffff1681565b610870610912565b600073ffffffffffffffffffffffffffffffffffffffff168173ffffffffffffffffffffffffffffffffffffffff1614156108e0576040517f08c379a00000000000000000000000000000000000000000000000000000000081526004016108d790610cfa565b60405180910390fd5b6108e981610990565b50565b600160009054906101000a900473ffffffffffffffffffffffffffffffffffffffff1681565b61091a610a54565b73ffffffffffffffffffffffffffffffffffffffff16610938610819565b73ffffffffffffffffffffffffffffffffffffffff161461098e576040517f08c379a000000000000000000000000000000000000000000000000000000000815260040161098590610d3a565b60405180910390fd5b565b60008060009054906101000a900473ffffffffffffffffffffffffffffffffffffffff169050816000806101000a81548173ffffffffffffffffffffffffffffffffffffffff021916908373ffffffffffffffffffffffffffffffffffffffff1602179055508173ffffffffffffffffffffffffffffffffffffffff168173ffffffffffffffffffffffffffffffffffffffff167f8be0079c531659141344cd1fd0a4f28419497f9722a3daafe3b4186f6b6457e060405160405180910390a35050565b600033905090565b600081359050610a6b8161103b565b92915050565b600081519050610a8081611052565b92915050565b600081359050610a9581611069565b92915050565b600081519050610aaa81611069565b92915050565b600060208284031215610ac657610ac5610f0c565b5b6000610ad484828501610a5c565b91505092915050565b600060208284031215610af357610af2610f0c565b5b6000610b0184828501610a71565b91505092915050565b600060208284031215610b2057610b1f610f0c565b5b6000610b2e84828501610a86565b91505092915050565b600060208284031215610b4d57610b4c610f0c565b5b6000610b5b84828501610a9b565b91505092915050565b610b6d81610dfa565b82525050565b610b7c81610e42565b82525050565b6000610b8d82610dde565b610b978185610de9565b9350610ba7818560208601610e78565b610bb081610f11565b840191505092915050565b6000610bc8602683610de9565b9150610bd382610f22565b604082019050919050565b6000610beb600c83610de9565b9150610bf682610f71565b602082019050919050565b6000610c0e602083610de9565b9150610c1982610f9a565b602082019050919050565b6000610c31601683610de9565b9150610c3c82610fc3565b602082019050919050565b6000610c54602183610de9565b9150610c5f82610fec565b604082019050919050565b610c7381610e38565b82525050565b6000602082019050610c8e6000830184610b64565b92915050565b6000604082019050610ca96000830185610b64565b610cb66020830184610c6a565b9392505050565b6000602082019050610cd26000830184610b73565b92915050565b60006020820190508181036000830152610cf28184610b82565b905092915050565b60006020820190508181036000830152610d1381610bbb565b9050919050565b60006020820190508181036000830152610d3381610bde565b9050919050565b60006020820190508181036000830152610d5381610c01565b9050919050565b60006020820190508181036000830152610d7381610c24565b9050919050565b60006020820190508181036000830152610d9381610c47565b9050919050565b6000602082019050610daf6000830184610c6a565b92915050565b6000604082019050610dca6000830185610c6a565b610dd76020830184610c6a565b9392505050565b600081519050919050565b600082825260208201905092915050565b6000610e0582610e18565b9050919050565b60008115159050919050565b600073ffffffffffffffffffffffffffffffffffffffff82169050919050565b6000819050919050565b6000610e4d82610e54565b9050919050565b6000610e5f82610e66565b9050919050565b6000610e7182610e18565b9050919050565b60005b83811015610e96578082015181840152602081019050610e7b565b83811115610ea5576000848401525b50505050565b60006002820490506001821680610ec357607f821691505b60208210811415610ed757610ed6610edd565b5b50919050565b7f4e487b7100000000000000000000000000000000000000000000000000000000600052602260045260246000fd5b600080fd5b6000601f19601f8301169050919050565b7f4f776e61626c653a206e6577206f776e657220697320746865207a65726f206160008201527f6464726573730000000000000000000000000000000000000000000000000000602082015250565b7f4e6f742074696d65207965740000000000000000000000000000000000000000600082015250565b7f4f776e61626c653a2063616c6c6572206973206e6f7420746865206f776e6572600082015250565b7f596f7520617265206e6f74207769746864726177657200000000000000000000600082015250565b7f576974686472617720616d6f756e74206973206578636565642062616c616e6360008201527f6500000000000000000000000000000000000000000000000000000000000000602082015250565b61104481610dfa565b811461104f57600080fd5b50565b61105b81610e0c565b811461106657600080fd5b50565b61107281610e38565b811461107d57600080fd5b5056fea2646970667358221220f560ca173d0daff42c24f6601f42b001319b72c3fd7c1f43faa8029a6527977564736f6c63430008070033",
  "immutableReferences": {},
  "source": "pragma solidity ^0.8.0;\n\nimport \"@openzeppelin/contracts/access/Ownable.sol\";\nimport \"@openzeppelin/contracts/security/ReentrancyGuard.sol\";\nimport \"@openzeppelin/contracts/utils/math/SafeMath.sol\";\nimport \"@openzeppelin/contracts/token/ERC20/utils/SafeERC20.sol\";\nimport \"@openzeppelin/contracts/token/ERC20/ERC20.sol\";\n\ncontract TokenLocker is Ownable {\n    using SafeMath for uint256;\n    using SafeERC20 for ERC20;\n\n    ERC20 public token;\n    address public withdrawer;\n    uint256 public withdrawTime;\n    string public name;\n\n    event withdrawTokenEvent(uint256 timestamp, uint256 amount);\n\n    constructor(\n        ERC20 _token,\n        string memory _name,\n        address _withdrawer, \n        uint256 _withdrawTime\n    ){\n        require(_withdrawTime > block.timestamp, \"withdraw time should be more than now\");\n\n        token = _token;\n        name = _name;\n        withdrawer = _withdrawer;\n        withdrawTime = _withdrawTime;\n    }\n\n    function withdrawToken(uint256 amount) public{\n        require(amount >= token.balanceOf(address(this)), \"Withdraw amount is exceed balance\");\n        require(msg.sender == withdrawer, \"You are not withdrawer\");\n        require(block.timestamp > withdrawTime, \"Not time yet\");\n        token.transfer(msg.sender, amount);\n            emit withdrawTokenEvent(block.timestamp, amount);\n    }\n\n    function withdrawTokenAll() public{\n        require(msg.sender == withdrawer, \"You are not withdrawer\");\n        require(block.timestamp > withdrawTime, \"Not time yet\");\n        uint256 amount = token.balanceOf(address(this));\n        token.transfer(msg.sender, amount);\n        emit withdrawTokenEvent(block.timestamp, amount);\n    }\n\n    function tokenRemaining() public view returns(uint256){\n        return token.balanceOf(address(this));\n    }\n\n}",
  "sourcePath": "/Users/macbookair/Desktop/truffle/fontpadcontract/contracts/TokenLocker.sol",
  "compiler": {
    "name": "solc",
    "version": "0.8.7+commit.e28d00a7.Emscripten.clang"
  },
  "schemaVersion": "3.4.8",
  "updatedAt": "2022-08-03T17:57:53.220Z",
  "devdoc": {
    "kind": "dev",
    "methods": {
      "owner()": {
        "details": "Returns the address of the current owner."
      },
      "renounceOwnership()": {
        "details": "Leaves the contract without owner. It will not be possible to call `onlyOwner` functions anymore. Can only be called by the current owner. NOTE: Renouncing ownership will leave the contract without an owner, thereby removing any functionality that is only available to the owner."
      },
      "transferOwnership(address)": {
        "details": "Transfers ownership of the contract to a new account (`newOwner`). Can only be called by the current owner."
      }
    },
    "version": 1
  },
  "userdoc": {
    "kind": "user",
    "methods": {},
    "version": 1
  }
}