{
  "contractName": "TokenLockerFactory",
  "abi": [
    {
      "inputs": [],
      "stateMutability": "nonpayable",
      "type": "constructor"
    },
    {
      "anonymous": false,
      "inputs": [
        {
          "indexed": false,
          "internalType": "uint256",
          "name": "lockerId",
          "type": "uint256"
        },
        {
          "indexed": true,
          "internalType": "address",
          "name": "lockerAddress",
          "type": "address"
        },
        {
          "indexed": false,
          "internalType": "address",
          "name": "tokenAddress",
          "type": "address"
        }
      ],
      "name": "LockerCreated",
      "type": "event"
    },
    {
      "anonymous": false,
      "inputs": [
        {
          "indexed": true,
          "internalType": "address",
          "name": "previousOwner",
          "type": "address"
        },
        {
          "indexed": true,
          "internalType": "address",
          "name": "newOwner",
          "type": "address"
        }
      ],
      "name": "OwnershipTransferred",
      "type": "event"
    },
    {
      "inputs": [],
      "name": "fee",
      "outputs": [
        {
          "internalType": "uint256",
          "name": "",
          "type": "uint256"
        }
      ],
      "stateMutability": "view",
      "type": "function",
      "constant": true
    },
    {
      "inputs": [],
      "name": "lockerCount",
      "outputs": [
        {
          "internalType": "uint256",
          "name": "",
          "type": "uint256"
        }
      ],
      "stateMutability": "view",
      "type": "function",
      "constant": true
    },
    {
      "inputs": [],
      "name": "owner",
      "outputs": [
        {
          "internalType": "address",
          "name": "",
          "type": "address"
        }
      ],
      "stateMutability": "view",
      "type": "function",
      "constant": true
    },
    {
      "inputs": [],
      "name": "renounceOwnership",
      "outputs": [],
      "stateMutability": "nonpayable",
      "type": "function"
    },
    {
      "inputs": [
        {
          "internalType": "address",
          "name": "newOwner",
          "type": "address"
        }
      ],
      "name": "transferOwnership",
      "outputs": [],
      "stateMutability": "nonpayable",
      "type": "function"
    },
    {
      "inputs": [
        {
          "internalType": "contract ERC20",
          "name": "_tokenAddress",
          "type": "address"
        },
        {
          "internalType": "string",
          "name": "_name",
          "type": "string"
        },
        {
          "internalType": "uint256",
          "name": "_lockAmount",
          "type": "uint256"
        },
        {
          "internalType": "address",
          "name": "_withdrawer",
          "type": "address"
        },
        {
          "internalType": "uint256",
          "name": "_withdrawTime",
          "type": "uint256"
        }
      ],
      "name": "createLocker",
      "outputs": [
        {
          "internalType": "address",
          "name": "",
          "type": "address"
        }
      ],
      "stateMutability": "payable",
      "type": "function",
      "payable": true
    },
    {
      "inputs": [],
      "name": "withdrawFee",
      "outputs": [],
      "stateMutability": "nonpayable",
      "type": "function"
    },
    {
      "inputs": [
        {
          "internalType": "uint256",
          "name": "amount",
          "type": "uint256"
        }
      ],
      "name": "setFee",
      "outputs": [],
      "stateMutability": "nonpayable",
      "type": "function"
    }
  ],
  "bytecode": "0x6080604052600060015567016345785d8a000060025534801561002157600080fd5b5061003e61003361004360201b60201c565b61004b60201b60201c565b61010f565b600033905090565b60008060009054906101000a900473ffffffffffffffffffffffffffffffffffffffff169050816000806101000a81548173ffffffffffffffffffffffffffffffffffffffff021916908373ffffffffffffffffffffffffffffffffffffffff1602179055508173ffffffffffffffffffffffffffffffffffffffff168173ffffffffffffffffffffffffffffffffffffffff167f8be0079c531659141344cd1fd0a4f28419497f9722a3daafe3b4186f6b6457e060405160405180910390a35050565b612b968061011e6000396000f3fe608060405260043610620000865760003560e01c8063ccd96eb61162000055578063ccd96eb61462000139578063ddca3f431462000169578063e941fa781462000199578063f2fde38b14620001b35762000086565b806303f3dbac146200008b57806369fe0e2d14620000c1578063715018a614620000ef5780638da5cb5b1462000109575b600080fd5b620000a96004803603810190620000a3919062000abe565b620001e1565b604051620000b8919062000d83565b60405180910390f35b348015620000ce57600080fd5b50620000ed6004803603810190620000e7919062000b65565b6200034e565b005b348015620000fc57600080fd5b506200010762000362565b005b3480156200011657600080fd5b50620001216200037a565b60405162000130919062000d83565b60405180910390f35b3480156200014657600080fd5b5062000151620003a3565b60405162000160919062000f21565b60405180910390f35b3480156200017657600080fd5b5062000181620003a9565b60405162000190919062000f21565b60405180910390f35b348015620001a657600080fd5b50620001b1620003af565b005b348015620001c057600080fd5b50620001df6004803603810190620001d9919062000a5a565b6200046f565b005b60006002543414620001f257600080fd5b600086868585604051620002069062000972565b62000215949392919062000ddd565b604051809103906000f08015801562000232573d6000803e3d6000fd5b5090508073ffffffffffffffffffffffffffffffffffffffff1663f2fde38b336040518263ffffffff1660e01b815260040162000270919062000d83565b600060405180830381600087803b1580156200028b57600080fd5b505af1158015620002a0573d6000803e3d6000fd5b50505050620002d33382878a73ffffffffffffffffffffffffffffffffffffffff16620004fa909392919063ffffffff16565b8073ffffffffffffffffffffffffffffffffffffffff167f4fd7b129e67605fe15d5e55ba0e969876d1549f11dc6aa106a702d51b27f5f4d600154896040516200031f92919062000f3e565b60405180910390a2600160008154809291906200033c9062001111565b91905055508091505095945050505050565b6200035862000587565b8060028190555050565b6200036c62000587565b6200037860006200060c565b565b60008060009054906101000a900473ffffffffffffffffffffffffffffffffffffffff16905090565b60015481565b60025481565b620003b962000587565b60003373ffffffffffffffffffffffffffffffffffffffff1647604051620003e19062000d6c565b60006040518083038185875af1925050503d806000811462000420576040519150601f19603f3d011682016040523d82523d6000602084013e62000425565b606091505b50509050806200046c576040517f08c379a0000000000000000000000000000000000000000000000000000000008152600401620004639062000ebb565b60405180910390fd5b50565b6200047962000587565b600073ffffffffffffffffffffffffffffffffffffffff168173ffffffffffffffffffffffffffffffffffffffff161415620004ec576040517f08c379a0000000000000000000000000000000000000000000000000000000008152600401620004e39062000e55565b60405180910390fd5b620004f7816200060c565b50565b62000581846323b872dd60e01b8585856040516024016200051e9392919062000da0565b604051602081830303815290604052907bffffffffffffffffffffffffffffffffffffffffffffffffffffffff19166020820180517bffffffffffffffffffffffffffffffffffffffffffffffffffffffff8381831617835250505050620006d0565b50505050565b620005916200079f565b73ffffffffffffffffffffffffffffffffffffffff16620005b16200037a565b73ffffffffffffffffffffffffffffffffffffffff16146200060a576040517f08c379a0000000000000000000000000000000000000000000000000000000008152600401620006019062000e99565b60405180910390fd5b565b60008060009054906101000a900473ffffffffffffffffffffffffffffffffffffffff169050816000806101000a81548173ffffffffffffffffffffffffffffffffffffffff021916908373ffffffffffffffffffffffffffffffffffffffff1602179055508173ffffffffffffffffffffffffffffffffffffffff168173ffffffffffffffffffffffffffffffffffffffff167f8be0079c531659141344cd1fd0a4f28419497f9722a3daafe3b4186f6b6457e060405160405180910390a35050565b600062000734826040518060400160405280602081526020017f5361666545524332303a206c6f772d6c6576656c2063616c6c206661696c65648152508573ffffffffffffffffffffffffffffffffffffffff16620007a79092919063ffffffff16565b90506000815111156200079a578080602001905181019062000757919062000a8c565b62000799576040517f08c379a0000000000000000000000000000000000000000000000000000000008152600401620007909062000eff565b60405180910390fd5b5b505050565b600033905090565b6060620007b88484600085620007c1565b90509392505050565b60608247101562000809576040517f08c379a0000000000000000000000000000000000000000000000000000000008152600401620008009062000e77565b60405180910390fd5b6200081485620008e3565b62000856576040517f08c379a00000000000000000000000000000000000000000000000000000000081526004016200084d9062000edd565b60405180910390fd5b6000808673ffffffffffffffffffffffffffffffffffffffff16858760405162000881919062000d53565b60006040518083038185875af1925050503d8060008114620008c0576040519150601f19603f3d011682016040523d82523d6000602084013e620008c5565b606091505b5091509150620008d782828662000906565b92505050949350505050565b6000808273ffffffffffffffffffffffffffffffffffffffff163b119050919050565b6060831562000918578290506200096b565b6000835111156200092c5782518084602001fd5b816040517f08c379a000000000000000000000000000000000000000000000000000000000815260040162000962919062000e31565b60405180910390fd5b9392505050565b6117ab80620013b683390190565b600062000997620009918462000f94565b62000f6b565b905082815260208101848484011115620009b657620009b5620011c2565b5b620009c384828562001096565b509392505050565b600081359050620009dc816200134d565b92915050565b600081519050620009f38162001367565b92915050565b60008135905062000a0a8162001381565b92915050565b600082601f83011262000a285762000a27620011bd565b5b813562000a3a84826020860162000980565b91505092915050565b60008135905062000a54816200139b565b92915050565b60006020828403121562000a735762000a72620011cc565b5b600062000a8384828501620009cb565b91505092915050565b60006020828403121562000aa55762000aa4620011cc565b5b600062000ab584828501620009e2565b91505092915050565b600080600080600060a0868803121562000add5762000adc620011cc565b5b600062000aed88828901620009f9565b955050602086013567ffffffffffffffff81111562000b115762000b10620011c7565b5b62000b1f8882890162000a10565b945050604062000b328882890162000a43565b935050606062000b4588828901620009cb565b925050608062000b588882890162000a43565b9150509295509295909350565b60006020828403121562000b7e5762000b7d620011cc565b5b600062000b8e8482850162000a43565b91505092915050565b62000ba28162000ffc565b82525050565b600062000bb58262000fca565b62000bc1818562000fe0565b935062000bd3818560208601620010a5565b80840191505092915050565b62000bea816200105a565b82525050565b600062000bfd8262000fd5565b62000c09818562000feb565b935062000c1b818560208601620010a5565b62000c2681620011d1565b840191505092915050565b600062000c4060268362000feb565b915062000c4d82620011e2565b604082019050919050565b600062000c6760268362000feb565b915062000c748262001231565b604082019050919050565b600062000c8e60208362000feb565b915062000c9b8262001280565b602082019050919050565b600062000cb560008362000fe0565b915062000cc282620012a9565b600082019050919050565b600062000cdc60108362000feb565b915062000ce982620012ac565b602082019050919050565b600062000d03601d8362000feb565b915062000d1082620012d5565b602082019050919050565b600062000d2a602a8362000feb565b915062000d3782620012fe565b604082019050919050565b62000d4d8162001050565b82525050565b600062000d61828462000ba8565b915081905092915050565b600062000d798262000ca6565b9150819050919050565b600060208201905062000d9a600083018462000b97565b92915050565b600060608201905062000db7600083018662000b97565b62000dc6602083018562000b97565b62000dd5604083018462000d42565b949350505050565b600060808201905062000df4600083018762000bdf565b818103602083015262000e08818662000bf0565b905062000e19604083018562000b97565b62000e28606083018462000d42565b95945050505050565b6000602082019050818103600083015262000e4d818462000bf0565b905092915050565b6000602082019050818103600083015262000e708162000c31565b9050919050565b6000602082019050818103600083015262000e928162000c58565b9050919050565b6000602082019050818103600083015262000eb48162000c7f565b9050919050565b6000602082019050818103600083015262000ed68162000ccd565b9050919050565b6000602082019050818103600083015262000ef88162000cf4565b9050919050565b6000602082019050818103600083015262000f1a8162000d1b565b9050919050565b600060208201905062000f38600083018462000d42565b92915050565b600060408201905062000f55600083018562000d42565b62000f64602083018462000b97565b9392505050565b600062000f7762000f8a565b905062000f858282620010db565b919050565b6000604051905090565b600067ffffffffffffffff82111562000fb25762000fb16200118e565b5b62000fbd82620011d1565b9050602081019050919050565b600081519050919050565b600081519050919050565b600081905092915050565b600082825260208201905092915050565b6000620010098262001030565b9050919050565b60008115159050919050565b6000620010298262000ffc565b9050919050565b600073ffffffffffffffffffffffffffffffffffffffff82169050919050565b6000819050919050565b600062001067826200106e565b9050919050565b60006200107b8262001082565b9050919050565b60006200108f8262001030565b9050919050565b82818337600083830152505050565b60005b83811015620010c5578082015181840152602081019050620010a8565b83811115620010d5576000848401525b50505050565b620010e682620011d1565b810181811067ffffffffffffffff821117156200110857620011076200118e565b5b80604052505050565b60006200111e8262001050565b91507fffffffffffffffffffffffffffffffffffffffffffffffffffffffffffffffff8214156200115457620011536200115f565b5b600182019050919050565b7f4e487b7100000000000000000000000000000000000000000000000000000000600052601160045260246000fd5b7f4e487b7100000000000000000000000000000000000000000000000000000000600052604160045260246000fd5b600080fd5b600080fd5b600080fd5b600080fd5b6000601f19601f8301169050919050565b7f4f776e61626c653a206e6577206f776e657220697320746865207a65726f206160008201527f6464726573730000000000000000000000000000000000000000000000000000602082015250565b7f416464726573733a20696e73756666696369656e742062616c616e636520666f60008201527f722063616c6c0000000000000000000000000000000000000000000000000000602082015250565b7f4f776e61626c653a2063616c6c6572206973206e6f7420746865206f776e6572600082015250565b50565b7f5472616e73666572206661696c65642e00000000000000000000000000000000600082015250565b7f416464726573733a2063616c6c20746f206e6f6e2d636f6e7472616374000000600082015250565b7f5361666545524332303a204552433230206f7065726174696f6e20646964206e60008201527f6f74207375636365656400000000000000000000000000000000000000000000602082015250565b620013588162000ffc565b81146200136457600080fd5b50565b620013728162001010565b81146200137e57600080fd5b50565b6200138c816200101c565b81146200139857600080fd5b50565b620013a68162001050565b8114620013b257600080fd5b5056fe60806040523480156200001157600080fd5b50604051620017ab380380620017ab833981810160405281019062000037919062000387565b620000576200004b6200014860201b60201c565b6200015060201b60201c565b4281116200009c576040517f08c379a000000000000000000000000000000000000000000000000000000000815260040162000093906200043f565b60405180910390fd5b83600160006101000a81548173ffffffffffffffffffffffffffffffffffffffff021916908373ffffffffffffffffffffffffffffffffffffffff1602179055508260049080519060200190620000f592919062000214565b5081600260006101000a81548173ffffffffffffffffffffffffffffffffffffffff021916908373ffffffffffffffffffffffffffffffffffffffff1602179055508060038190555050505050620006e5565b600033905090565b60008060009054906101000a900473ffffffffffffffffffffffffffffffffffffffff169050816000806101000a81548173ffffffffffffffffffffffffffffffffffffffff021916908373ffffffffffffffffffffffffffffffffffffffff1602179055508173ffffffffffffffffffffffffffffffffffffffff168173ffffffffffffffffffffffffffffffffffffffff167f8be0079c531659141344cd1fd0a4f28419497f9722a3daafe3b4186f6b6457e060405160405180910390a35050565b828054620002229062000559565b90600052602060002090601f01602090048101928262000246576000855562000292565b82601f106200026157805160ff191683800117855562000292565b8280016001018555821562000292579182015b828111156200029157825182559160200191906001019062000274565b5b509050620002a19190620002a5565b5090565b5b80821115620002c0576000816000905550600101620002a6565b5090565b6000620002db620002d5846200048a565b62000461565b905082815260208101848484011115620002fa57620002f962000628565b5b6200030784828562000523565b509392505050565b600081519050620003208162000697565b92915050565b6000815190506200033781620006b1565b92915050565b600082601f83011262000355576200035462000623565b5b815162000367848260208601620002c4565b91505092915050565b6000815190506200038181620006cb565b92915050565b60008060008060808587031215620003a457620003a362000632565b5b6000620003b48782880162000326565b945050602085015167ffffffffffffffff811115620003d857620003d76200062d565b5b620003e6878288016200033d565b9350506040620003f9878288016200030f565b92505060606200040c8782880162000370565b91505092959194509250565b600062000427602583620004c0565b9150620004348262000648565b604082019050919050565b600060208201905081810360008301526200045a8162000418565b9050919050565b60006200046d62000480565b90506200047b82826200058f565b919050565b6000604051905090565b600067ffffffffffffffff821115620004a857620004a7620005f4565b5b620004b38262000637565b9050602081019050919050565b600082825260208201905092915050565b6000620004de82620004f9565b9050919050565b6000620004f282620004d1565b9050919050565b600073ffffffffffffffffffffffffffffffffffffffff82169050919050565b6000819050919050565b60005b838110156200054357808201518184015260208101905062000526565b8381111562000553576000848401525b50505050565b600060028204905060018216806200057257607f821691505b60208210811415620005895762000588620005c5565b5b50919050565b6200059a8262000637565b810181811067ffffffffffffffff82111715620005bc57620005bb620005f4565b5b80604052505050565b7f4e487b7100000000000000000000000000000000000000000000000000000000600052602260045260246000fd5b7f4e487b7100000000000000000000000000000000000000000000000000000000600052604160045260246000fd5b600080fd5b600080fd5b600080fd5b600080fd5b6000601f19601f8301169050919050565b7f77697468647261772074696d652073686f756c64206265206d6f72652074686160008201527f6e206e6f77000000000000000000000000000000000000000000000000000000602082015250565b620006a281620004d1565b8114620006ae57600080fd5b50565b620006bc81620004e5565b8114620006c857600080fd5b50565b620006d68162000519565b8114620006e257600080fd5b50565b6110b680620006f56000396000f3fe608060405234801561001057600080fd5b506004361061009e5760003560e01c80637fc0254d116100665780637fc0254d146101235780638da5cb5b1461012d578063cdc184241461014b578063f2fde38b14610169578063fc0c546a146101855761009e565b806306fdde03146100a357806345cb3dde146100c157806350baa622146100df57806368646cf0146100fb578063715018a614610119575b600080fd5b6100ab6101a3565b6040516100b89190610cd8565b60405180910390f35b6100c9610231565b6040516100d69190610d9a565b60405180910390f35b6100f960048036038101906100f49190610b0a565b610237565b005b6101036104e4565b6040516101109190610d9a565b60405180910390f35b610121610596565b005b61012b6105aa565b005b610135610819565b6040516101429190610c79565b60405180910390f35b610153610842565b6040516101609190610c79565b60405180910390f35b610183600480360381019061017e9190610ab0565b610868565b005b61018d6108ec565b60405161019a9190610cbd565b60405180910390f35b600480546101b090610eab565b80601f01602080910402602001604051908101604052809291908181526020018280546101dc90610eab565b80156102295780601f106101fe57610100808354040283529160200191610229565b820191906000526020600020905b81548152906001019060200180831161020c57829003601f168201915b505050505081565b60035481565b600160009054906101000a900473ffffffffffffffffffffffffffffffffffffffff1673ffffffffffffffffffffffffffffffffffffffff166370a08231306040518263ffffffff1660e01b81526004016102929190610c79565b60206040518083038186803b1580156102aa57600080fd5b505afa1580156102be573d6000803e3d6000fd5b505050506040513d601f19601f820116820180604052508101906102e29190610b37565b811015610324576040517f08c379a000000000000000000000000000000000000000000000000000000000815260040161031b90610d7a565b60405180910390fd5b600260009054906101000a900473ffffffffffffffffffffffffffffffffffffffff1673ffffffffffffffffffffffffffffffffffffffff163373ffffffffffffffffffffffffffffffffffffffff16146103b4576040517f08c379a00000000000000000000000000000000000000000000000000000000081526004016103ab90610d5a565b60405180910390fd5b60035442116103f8576040517f08c379a00000000000000000000000000000000000000000000000000000000081526004016103ef90610d1a565b60405180910390fd5b600160009054906101000a900473ffffffffffffffffffffffffffffffffffffffff1673ffffffffffffffffffffffffffffffffffffffff1663a9059cbb33836040518363ffffffff1660e01b8152600401610455929190610c94565b602060405180830381600087803b15801561046f57600080fd5b505af1158015610483573d6000803e3d6000fd5b505050506040513d601f19601f820116820180604052508101906104a79190610add565b507fa4fa6d4c08e67b66804f329195ed12feecfe9057e79e17edf30ff90f6cf37d8f42826040516104d9929190610db5565b60405180910390a150565b6000600160009054906101000a900473ffffffffffffffffffffffffffffffffffffffff1673ffffffffffffffffffffffffffffffffffffffff166370a08231306040518263ffffffff1660e01b81526004016105419190610c79565b60206040518083038186803b15801561055957600080fd5b505afa15801561056d573d6000803e3d6000fd5b505050506040513d601f19601f820116820180604052508101906105919190610b37565b905090565b61059e610912565b6105a86000610990565b565b600260009054906101000a900473ffffffffffffffffffffffffffffffffffffffff1673ffffffffffffffffffffffffffffffffffffffff163373ffffffffffffffffffffffffffffffffffffffff161461063a576040517f08c379a000000000000000000000000000000000000000000000000000000000815260040161063190610d5a565b60405180910390fd5b600354421161067e576040517f08c379a000000000000000000000000000000000000000000000000000000000815260040161067590610d1a565b60405180910390fd5b6000600160009054906101000a900473ffffffffffffffffffffffffffffffffffffffff1673ffffffffffffffffffffffffffffffffffffffff166370a08231306040518263ffffffff1660e01b81526004016106db9190610c79565b60206040518083038186803b1580156106f357600080fd5b505afa158015610707573d6000803e3d6000fd5b505050506040513d601f19601f8201168201806040525081019061072b9190610b37565b9050600160009054906101000a900473ffffffffffffffffffffffffffffffffffffffff1673ffffffffffffffffffffffffffffffffffffffff1663a9059cbb33836040518363ffffffff1660e01b815260040161078a929190610c94565b602060405180830381600087803b1580156107a457600080fd5b505af11580156107b8573d6000803e3d6000fd5b505050506040513d601f19601f820116820180604052508101906107dc9190610add565b507fa4fa6d4c08e67b66804f329195ed12feecfe9057e79e17edf30ff90f6cf37d8f428260405161080e929190610db5565b60405180910390a150565b60008060009054906101000a900473ffffffffffffffffffffffffffffffffffffffff16905090565b600260009054906101000a900473ffffffffffffffffffffffffffffffffffffffff1681565b610870610912565b600073ffffffffffffffffffffffffffffffffffffffff168173ffffffffffffffffffffffffffffffffffffffff1614156108e0576040517f08c379a00000000000000000000000000000000000000000000000000000000081526004016108d790610cfa565b60405180910390fd5b6108e981610990565b50565b600160009054906101000a900473ffffffffffffffffffffffffffffffffffffffff1681565b61091a610a54565b73ffffffffffffffffffffffffffffffffffffffff16610938610819565b73ffffffffffffffffffffffffffffffffffffffff161461098e576040517f08c379a000000000000000000000000000000000000000000000000000000000815260040161098590610d3a565b60405180910390fd5b565b60008060009054906101000a900473ffffffffffffffffffffffffffffffffffffffff169050816000806101000a81548173ffffffffffffffffffffffffffffffffffffffff021916908373ffffffffffffffffffffffffffffffffffffffff1602179055508173ffffffffffffffffffffffffffffffffffffffff168173ffffffffffffffffffffffffffffffffffffffff167f8be0079c531659141344cd1fd0a4f28419497f9722a3daafe3b4186f6b6457e060405160405180910390a35050565b600033905090565b600081359050610a6b8161103b565b92915050565b600081519050610a8081611052565b92915050565b600081359050610a9581611069565b92915050565b600081519050610aaa81611069565b92915050565b600060208284031215610ac657610ac5610f0c565b5b6000610ad484828501610a5c565b91505092915050565b600060208284031215610af357610af2610f0c565b5b6000610b0184828501610a71565b91505092915050565b600060208284031215610b2057610b1f610f0c565b5b6000610b2e84828501610a86565b91505092915050565b600060208284031215610b4d57610b4c610f0c565b5b6000610b5b84828501610a9b565b91505092915050565b610b6d81610dfa565b82525050565b610b7c81610e42565b82525050565b6000610b8d82610dde565b610b978185610de9565b9350610ba7818560208601610e78565b610bb081610f11565b840191505092915050565b6000610bc8602683610de9565b9150610bd382610f22565b604082019050919050565b6000610beb600c83610de9565b9150610bf682610f71565b602082019050919050565b6000610c0e602083610de9565b9150610c1982610f9a565b602082019050919050565b6000610c31601683610de9565b9150610c3c82610fc3565b602082019050919050565b6000610c54602183610de9565b9150610c5f82610fec565b604082019050919050565b610c7381610e38565b82525050565b6000602082019050610c8e6000830184610b64565b92915050565b6000604082019050610ca96000830185610b64565b610cb66020830184610c6a565b9392505050565b6000602082019050610cd26000830184610b73565b92915050565b60006020820190508181036000830152610cf28184610b82565b905092915050565b60006020820190508181036000830152610d1381610bbb565b9050919050565b60006020820190508181036000830152610d3381610bde565b9050919050565b60006020820190508181036000830152610d5381610c01565b9050919050565b60006020820190508181036000830152610d7381610c24565b9050919050565b60006020820190508181036000830152610d9381610c47565b9050919050565b6000602082019050610daf6000830184610c6a565b92915050565b6000604082019050610dca6000830185610c6a565b610dd76020830184610c6a565b9392505050565b600081519050919050565b600082825260208201905092915050565b6000610e0582610e18565b9050919050565b60008115159050919050565b600073ffffffffffffffffffffffffffffffffffffffff82169050919050565b6000819050919050565b6000610e4d82610e54565b9050919050565b6000610e5f82610e66565b9050919050565b6000610e7182610e18565b9050919050565b60005b83811015610e96578082015181840152602081019050610e7b565b83811115610ea5576000848401525b50505050565b60006002820490506001821680610ec357607f821691505b60208210811415610ed757610ed6610edd565b5b50919050565b7f4e487b7100000000000000000000000000000000000000000000000000000000600052602260045260246000fd5b600080fd5b6000601f19601f8301169050919050565b7f4f776e61626c653a206e6577206f776e657220697320746865207a65726f206160008201527f6464726573730000000000000000000000000000000000000000000000000000602082015250565b7f4e6f742074696d65207965740000000000000000000000000000000000000000600082015250565b7f4f776e61626c653a2063616c6c6572206973206e6f7420746865206f776e6572600082015250565b7f596f7520617265206e6f74207769746864726177657200000000000000000000600082015250565b7f576974686472617720616d6f756e74206973206578636565642062616c616e6360008201527f6500000000000000000000000000000000000000000000000000000000000000602082015250565b61104481610dfa565b811461104f57600080fd5b50565b61105b81610e0c565b811461106657600080fd5b50565b61107281610e38565b811461107d57600080fd5b5056fea2646970667358221220f560ca173d0daff42c24f6601f42b001319b72c3fd7c1f43faa8029a6527977564736f6c63430008070033a2646970667358221220beb75e1f6f2b338eeca3fa3d614f03088c9dda616831f336d51bc00cabec2ef364736f6c63430008070033",
  "immutableReferences": {},
  "source": "pragma solidity ^0.8.0;\n\nimport \"@openzeppelin/contracts/access/Ownable.sol\";\nimport \"@openzeppelin/contracts/security/ReentrancyGuard.sol\";\nimport \"@openzeppelin/contracts/utils/math/SafeMath.sol\";\nimport \"@openzeppelin/contracts/token/ERC20/utils/SafeERC20.sol\";\nimport \"@openzeppelin/contracts/token/ERC20/ERC20.sol\";\nimport \"./TokenLocker.sol\";\n\ncontract TokenLockerFactory is Ownable {\n    using SafeMath for uint256;\n    using SafeERC20 for ERC20;\n    \n    uint256 public lockerCount = 0;\n    uint256 public fee = 0.1 ether;\n    \n    struct lockerInfo {\n        uint256 lockerId;\n        address tokenAddress;\n        address creator;\n        uint256 ramaining;\n        address withdrawer;\n        uint256 withdrawTime;\n    }\n\n\n    event LockerCreated(uint256 lockerId, address indexed lockerAddress, address tokenAddress);\n\n    constructor( \n    ){\n\n    }\n\n    function createLocker(\n        ERC20 _tokenAddress,\n        string memory _name,\n        uint256 _lockAmount, \n        address _withdrawer, \n        uint256 _withdrawTime\n        ) payable public returns(address){\n            \n        require(msg.value == fee);\n\n        TokenLocker tokenLocker = new TokenLocker(_tokenAddress,_name, _withdrawer, _withdrawTime);\n        tokenLocker.transferOwnership(msg.sender);\n\n        _tokenAddress.safeTransferFrom(\n                msg.sender,\n                address(tokenLocker),\n                _lockAmount\n            );\n\n        emit LockerCreated(lockerCount, address(tokenLocker), address(_tokenAddress));\n        lockerCount++;\n        return address(tokenLocker);\n\n    }\n\n    function withdrawFee() public onlyOwner{\n        (bool success, ) = msg.sender.call{value: address(this).balance}(\"\");\n        require(success, \"Transfer failed.\");\n    }\n\n    function setFee(uint256 amount) public onlyOwner{\n        fee = amount;\n    }\n}",
  "sourcePath": "/Users/macbookair/Desktop/truffle/fontpadcontract/contracts/TokenLockerFactory.sol",
  "compiler": {
    "name": "solc",
    "version": "0.8.7+commit.e28d00a7.Emscripten.clang"
  },
  "schemaVersion": "3.4.8",
  "updatedAt": "2022-08-03T17:59:40.678Z",
  "networkType": "ethereum",
  "devdoc": {
    "kind": "dev",
    "methods": {
      "owner()": {
        "details": "Returns the address of the current owner."
      },
      "renounceOwnership()": {
        "details": "Leaves the contract without owner. It will not be possible to call `onlyOwner` functions anymore. Can only be called by the current owner. NOTE: Renouncing ownership will leave the contract without an owner, thereby removing any functionality that is only available to the owner."
      },
      "transferOwnership(address)": {
        "details": "Transfers ownership of the contract to a new account (`newOwner`). Can only be called by the current owner."
      }
    },
    "version": 1
  },
  "userdoc": {
    "kind": "user",
    "methods": {},
    "version": 1
  }
}