{
  "contractName": "TokenLocker",
  "abi": [
    {
      "inputs": [
        {
          "internalType": "contract ERC20",
          "name": "_token",
          "type": "address"
        },
        {
          "internalType": "string",
          "name": "_name",
          "type": "string"
        },
        {
          "internalType": "address",
          "name": "_withdrawer",
          "type": "address"
        },
        {
          "internalType": "uint256",
          "name": "_withdrawTime",
          "type": "uint256"
        }
      ],
      "stateMutability": "nonpayable",
      "type": "constructor"
    },
    {
      "anonymous": false,
      "inputs": [
        {
          "indexed": true,
          "internalType": "address",
          "name": "previousOwner",
          "type": "address"
        },
        {
          "indexed": true,
          "internalType": "address",
          "name": "newOwner",
          "type": "address"
        }
      ],
      "name": "OwnershipTransferred",
      "type": "event"
    },
    {
      "anonymous": false,
      "inputs": [
        {
          "indexed": false,
          "internalType": "uint256",
          "name": "timestamp",
          "type": "uint256"
        },
        {
          "indexed": false,
          "internalType": "uint256",
          "name": "amount",
          "type": "uint256"
        }
      ],
      "name": "withdrawTokenEvent",
      "type": "event"
    },
    {
      "inputs": [],
      "name": "name",
      "outputs": [
        {
          "internalType": "string",
          "name": "",
          "type": "string"
        }
      ],
      "stateMutability": "view",
      "type": "function"
    },
    {
      "inputs": [],
      "name": "owner",
      "outputs": [
        {
          "internalType": "address",
          "name": "",
          "type": "address"
        }
      ],
      "stateMutability": "view",
      "type": "function"
    },
    {
      "inputs": [],
      "name": "renounceOwnership",
      "outputs": [],
      "stateMutability": "nonpayable",
      "type": "function"
    },
    {
      "inputs": [],
      "name": "token",
      "outputs": [
        {
          "internalType": "contract ERC20",
          "name": "",
          "type": "address"
        }
      ],
      "stateMutability": "view",
      "type": "function"
    },
    {
      "inputs": [
        {
          "internalType": "address",
          "name": "newOwner",
          "type": "address"
        }
      ],
      "name": "transferOwnership",
      "outputs": [],
      "stateMutability": "nonpayable",
      "type": "function"
    },
    {
      "inputs": [],
      "name": "withdrawTime",
      "outputs": [
        {
          "internalType": "uint256",
          "name": "",
          "type": "uint256"
        }
      ],
      "stateMutability": "view",
      "type": "function"
    },
    {
      "inputs": [],
      "name": "withdrawer",
      "outputs": [
        {
          "internalType": "address",
          "name": "",
          "type": "address"
        }
      ],
      "stateMutability": "view",
      "type": "function"
    },
    {
      "inputs": [
        {
          "internalType": "uint256",
          "name": "amount",
          "type": "uint256"
        }
      ],
      "name": "withdrawToken",
      "outputs": [],
      "stateMutability": "nonpayable",
      "type": "function"
    },
    {
      "inputs": [],
      "name": "withdrawTokenAll",
      "outputs": [],
      "stateMutability": "nonpayable",
      "type": "function"
    },
    {
      "inputs": [],
      "name": "tokenRemaining",
      "outputs": [
        {
          "internalType": "uint256",
          "name": "",
          "type": "uint256"
        }
      ],
      "stateMutability": "view",
      "type": "function"
    }
  ],
  "bytecode": "0x60806040523480156200001157600080fd5b5060405162000ee438038062000ee48339810160408190526200003491620002c1565b6200003f33620000c1565b4281116200006a5760405162461bcd60e51b815260040162000061906200034b565b60405180910390fd5b600180546001600160a01b0319166001600160a01b038616179055600462000093848262000492565b50600280546001600160a01b0319166001600160a01b03939093169290921790915560035550620005629050565b600080546001600160a01b038381166001600160a01b0319831681178455604051919092169283917f8be0079c531659141344cd1fd0a4f28419497f9722a3daafe3b4186f6b6457e09190a35050565b60006001600160a01b0382165b92915050565b60006200011e8262000111565b6200013c8162000124565b81146200014857600080fd5b50565b80516200011e8162000131565b634e487b7160e01b600052604160045260246000fd5b601f19601f83011681018181106001600160401b038211171562000196576200019662000158565b6040525050565b6000620001a960405190565b9050620001b782826200016e565b919050565b60006001600160401b03821115620001d857620001d862000158565b601f19601f83011660200192915050565b60005b8381101562000206578181015183820152602001620001ec565b8381111562000216576000848401525b50505050565b6000620002336200022d84620001bc565b6200019d565b905082815260208101848484011115620002505762000250600080fd5b6200025d848285620001e9565b509392505050565b600082601f8301126200027b576200027b600080fd5b81516200028d8482602086016200021c565b949350505050565b6200013c8162000111565b80516200011e8162000295565b806200013c565b80516200011e81620002ad565b60008060008060808587031215620002dc57620002dc600080fd5b6000620002ea87876200014b565b94505060208501516001600160401b038111156200030b576200030b600080fd5b620003198782880162000265565b93505060406200032c87828801620002a0565b92505060606200033f87828801620002b4565b91505092959194509250565b602080825281016200011e81602581527f77697468647261772074696d652073686f756c64206265206d6f7265207468616020820152646e206e6f7760d81b604082015260600190565b634e487b7160e01b600052602260045260246000fd5b600281046001821680620003c057607f821691505b602082108103620003d557620003d562000395565b50919050565b60006200011e620003e98381565b90565b620003f783620003db565b81546008840282811b60001990911b908116901990911617825550505050565b600062000426818484620003ec565b505050565b818110156200044a576200044160008262000417565b6001016200042b565b5050565b601f82111562000426576000818152602090206020601f85010481016020851015620004775750805b6200048b6020601f8601048301826200042b565b5050505050565b81516001600160401b03811115620004ae57620004ae62000158565b620004ba8254620003ab565b620004c78282856200044e565b6020601f831160018114620004fe5760008415620004e55750858201515b600019600886021c19811660028602178655506200055a565b600085815260208120601f198616915b828110156200053057888501518255602094850194600190920191016200050e565b868310156200054d5784890151600019601f89166008021c191682555b6001600288020188555050505b505050505050565b61097280620005726000396000f3fe608060405234801561001057600080fd5b506004361061009e5760003560e01c80637fc0254d116100665780637fc0254d146100fc5780638da5cb5b14610104578063cdc184241461011e578063f2fde38b14610131578063fc0c546a1461014457600080fd5b806306fdde03146100a357806345cb3dde146100c157806350baa622146100d757806368646cf0146100ec578063715018a6146100f4575b600080fd5b6100ab610164565b6040516100b89190610619565b60405180910390f35b6100ca60035481565b6040516100b89190610639565b6100ea6100e5366004610665565b6101f2565b005b6100ca610388565b6100ea6103ff565b6100ea610413565b6000546001600160a01b03165b6040516100b891906106a8565b600254610111906001600160a01b031681565b6100ea61013f3660046106ca565b610503565b600154610157906001600160a01b031681565b6040516100b8919061070a565b600480546101719061072e565b80601f016020809104026020016040519081016040528092919081815260200182805461019d9061072e565b80156101ea5780601f106101bf576101008083540402835291602001916101ea565b820191906000526020600020905b8154815290600101906020018083116101cd57829003601f168201915b505050505081565b6001546040516370a0823160e01b81526001600160a01b03909116906370a08231906102229030906004016106a8565b602060405180830381865afa15801561023f573d6000803e3d6000fd5b505050506040513d601f19601f820116820180604052508101906102639190610765565b81101561028b5760405162461bcd60e51b8152600401610282906107c7565b60405180910390fd5b6002546001600160a01b031633146102b55760405162461bcd60e51b815260040161028290610807565b60035442116102d65760405162461bcd60e51b81526004016102829061083a565b60015460405163a9059cbb60e01b81526001600160a01b039091169063a9059cbb90610308903390859060040161084a565b6020604051808303816000875af1158015610327573d6000803e3d6000fd5b505050506040513d601f19601f8201168201806040525081019061034b9190610878565b507fa4fa6d4c08e67b66804f329195ed12feecfe9057e79e17edf30ff90f6cf37d8f428260405161037d929190610899565b60405180910390a150565b6001546040516370a0823160e01b81526000916001600160a01b0316906370a08231906103b99030906004016106a8565b602060405180830381865afa1580156103d6573d6000803e3d6000fd5b505050506040513d601f19601f820116820180604052508101906103fa9190610765565b905090565b61040761053d565b6104116000610567565b565b6002546001600160a01b0316331461043d5760405162461bcd60e51b815260040161028290610807565b600354421161045e5760405162461bcd60e51b81526004016102829061083a565b6001546040516370a0823160e01b81526000916001600160a01b0316906370a082319061048f9030906004016106a8565b602060405180830381865afa1580156104ac573d6000803e3d6000fd5b505050506040513d601f19601f820116820180604052508101906104d09190610765565b60015460405163a9059cbb60e01b81529192506001600160a01b03169063a9059cbb90610308903390859060040161084a565b61050b61053d565b6001600160a01b0381166105315760405162461bcd60e51b8152600401610282906108ea565b61053a81610567565b50565b6000546001600160a01b031633146104115760405162461bcd60e51b81526004016102829061092c565b600080546001600160a01b038381166001600160a01b0319831681178455604051919092169283917f8be0079c531659141344cd1fd0a4f28419497f9722a3daafe3b4186f6b6457e09190a35050565b60005b838110156105d25781810151838201526020016105ba565b838111156105e1576000848401525b50505050565b60006105f1825190565b8084526020840193506106088185602086016105b7565b601f01601f19169290920192915050565b6020808252810161062a81846105e7565b9392505050565b805b82525050565b602081016106478284610631565b92915050565b805b811461053a57600080fd5b80356106478161064d565b60006020828403121561067a5761067a600080fd5b6000610686848461065a565b949350505050565b60006001600160a01b038216610647565b6106338161068e565b60208101610647828461069f565b61064f8161068e565b8035610647816106b6565b6000602082840312156106df576106df600080fd5b600061068684846106bf565b60006106478261068e565b6000610647826106eb565b610633816106f6565b602081016106478284610701565b634e487b7160e01b600052602260045260246000fd5b60028104600182168061074257607f821691505b60208210810361075457610754610718565b50919050565b80516106478161064d565b60006020828403121561077a5761077a600080fd5b6000610686848461075a565b602181526000602082017f576974686472617720616d6f756e74206973206578636565642062616c616e638152606560f81b602082015291505b5060400190565b6020808252810161064781610786565b60168152600060208201752cb7ba9030b932903737ba103bb4ba34323930bbb2b960511b815291505b5060200190565b60208082528101610647816107d7565b600c81526000602082016b139bdd081d1a5b59481e595d60a21b81529150610800565b6020808252810161064781610817565b60408101610858828561069f565b61062a6020830184610631565b80151561064f565b805161064781610865565b60006020828403121561088d5761088d600080fd5b6000610686848461086d565b604081016108588285610631565b602681526000602082017f4f776e61626c653a206e6577206f776e657220697320746865207a65726f206181526564647265737360d01b602082015291506107c0565b60208082528101610647816108a7565b60208082527f4f776e61626c653a2063616c6c6572206973206e6f7420746865206f776e657291019081526000610800565b60208082528101610647816108fa56fea2646970667358221220b84052a453ca7e0b03d02002ba64b5db77537c098cda56da6f7f06675a42395864736f6c634300080f0033",
  "immutableReferences": {},
  "source": "pragma solidity ^0.8.0;\n\nimport \"@openzeppelin/contracts/access/Ownable.sol\";\nimport \"@openzeppelin/contracts/security/ReentrancyGuard.sol\";\nimport \"@openzeppelin/contracts/utils/math/SafeMath.sol\";\nimport \"@openzeppelin/contracts/token/ERC20/utils/SafeERC20.sol\";\nimport \"@openzeppelin/contracts/token/ERC20/ERC20.sol\";\n\ncontract TokenLocker is Ownable {\n    using SafeMath for uint256;\n    using SafeERC20 for ERC20;\n\n    ERC20 public token;\n    address public withdrawer;\n    uint256 public withdrawTime;\n    string public name;\n\n    event withdrawTokenEvent(uint256 timestamp, uint256 amount);\n\n    constructor(\n        ERC20 _token,\n        string memory _name,\n        address _withdrawer, \n        uint256 _withdrawTime\n    ){\n        require(_withdrawTime > block.timestamp, \"withdraw time should be more than now\");\n\n        token = _token;\n        name = _name;\n        withdrawer = _withdrawer;\n        withdrawTime = _withdrawTime;\n    }\n\n    function withdrawToken(uint256 amount) public{\n        require(amount >= token.balanceOf(address(this)), \"Withdraw amount is exceed balance\");\n        require(msg.sender == withdrawer, \"You are not withdrawer\");\n        require(block.timestamp > withdrawTime, \"Not time yet\");\n        token.transfer(msg.sender, amount);\n            emit withdrawTokenEvent(block.timestamp, amount);\n    }\n\n    function withdrawTokenAll() public{\n        require(msg.sender == withdrawer, \"You are not withdrawer\");\n        require(block.timestamp > withdrawTime, \"Not time yet\");\n        uint256 amount = token.balanceOf(address(this));\n        token.transfer(msg.sender, amount);\n        emit withdrawTokenEvent(block.timestamp, amount);\n    }\n\n    function tokenRemaining() public view returns(uint256){\n        return token.balanceOf(address(this));\n    }\n\n}",
  "sourcePath": "/Users/macbookair/Desktop/truffle/fontpadcontract/contracts/TokenLocker.sol",
  "compiler": {
    "name": "solc",
    "version": "0.8.15+commit.e14f2714.Emscripten.clang"
  },
  "schemaVersion": "3.4.8",
  "updatedAt": "2022-07-30T00:15:19.889Z",
  "devdoc": {
    "kind": "dev",
    "methods": {
      "owner()": {
        "details": "Returns the address of the current owner."
      },
      "renounceOwnership()": {
        "details": "Leaves the contract without owner. It will not be possible to call `onlyOwner` functions anymore. Can only be called by the current owner. NOTE: Renouncing ownership will leave the contract without an owner, thereby removing any functionality that is only available to the owner."
      },
      "transferOwnership(address)": {
        "details": "Transfers ownership of the contract to a new account (`newOwner`). Can only be called by the current owner."
      }
    },
    "version": 1
  },
  "userdoc": {
    "kind": "user",
    "methods": {},
    "version": 1
  }
}